{
  "transactions": [
    {
      "hash": "0x8dfa1a00ceb63b03c3cf3cc78f0325349b4fe7574b93c94648ff05a4923db439",
      "transactionType": "CALL",
      "contractName": null,
      "contractAddress": "0xb9e00f1affa881ce0bd39714f920e19a2fbae9bf",
      "function": null,
      "arguments": null,
      "transaction": {
        "from": "0x7a30d670ebeb9620e35bc6034aee69c4fa5bc50b",
        "to": "0xb9e00f1affa881ce0bd39714f920e19a2fbae9bf",
        "gas": "0x714d",
        "value": "0x470de4df820000",
        "input": "0x",
        "nonce": "0x35",
        "chainId": "0xaa36a7"
      },
      "additionalContracts": [],
      "isFixedGasLimit": false
    },
    {
      "hash": "0xbc987459a25327b4a8949a4b95d572989a8743dab982a265c53fe96bf3b22878",
      "transactionType": "CALL",
      "contractName": null,
      "contractAddress": "0xb698bbc0cfabf285c3bc59f1fcdec0bc6be056e7",
      "function": null,
      "arguments": null,
      "transaction": {
        "from": "0x7a30d670ebeb9620e35bc6034aee69c4fa5bc50b",
        "to": "0xb698bbc0cfabf285c3bc59f1fcdec0bc6be056e7",
        "gas": "0x714d",
        "value": "0x470de4df820000",
        "input": "0x",
        "nonce": "0x36",
        "chainId": "0xaa36a7"
      },
      "additionalContracts": [],
      "isFixedGasLimit": false
    },
    {
      "hash": "0x2c3a28a7827d81988ea558419343e38172b3994bba0d0520642429434f25d41f",
      "transactionType": "CALL",
      "contractName": null,
      "contractAddress": "0x0e4137cc01ce2c15a7dc3aede1313f568dcf8e49",
      "function": "registerUser(bytes32,string,address,string,string,string,uint64)",
      "arguments": [
        "0xe567c8a690864cabe3b1c8c2d97ab50fc0f135650fdfb978beeffa6dd226a7fd",
        "aysel",
        "0x6241b56a38C2dcBE2B43c16FBd1fC38b6475082b",
        "nurse",
        "clinical,operational",
        "confidential",
        "1778315304"
      ],
      "transaction": {
        "from": "0xb9e00f1affa881ce0bd39714f920e19a2fbae9bf",
        "to": "0x0e4137cc01ce2c15a7dc3aede1313f568dcf8e49",
        "gas": "0x3c6f2",
        "value": "0x0",
        "input": "0xbaa9e417e567c8a690864cabe3b1c8c2d97ab50fc0f135650fdfb978beeffa6dd226a7fd00000000000000000000000000000000000000000000000000000000000000e00000000000000000000000006241b56a38c2dcbe2b43c16fbd1fc38b6475082b0000000000000000000000000000000000000000000000000000000000000120000000000000000000000000000000000000000000000000000000000000016000000000000000000000000000000000000000000000000000000000000001a00000000000000000000000000000000000000000000000000000000069fef0280000000000000000000000000000000000000000000000000000000000000005617973656c00000000000000000000000000000000000000000000000000000000000000000000000000000000000000000000000000000000000000000000056e757273650000000000000000000000000000000000000000000000000000000000000000000000000000000000000000000000000000000000000000000014636c696e6963616c2c6f7065726174696f6e616c000000000000000000000000000000000000000000000000000000000000000000000000000000000000000c636f6e666964656e7469616c0000000000000000000000000000000000000000",
        "nonce": "0x0",
        "chainId": "0xaa36a7"
      },
      "additionalContracts": [],
      "isFixedGasLimit": false
    },
    {
      "hash": "0xf5cf51f5b09fd1eb64c6d79a0173acf7a19d29d94aee615dbd66f7b89fba5483",
      "transactionType": "CALL",
      "contractName": null,
      "contractAddress": "0x0e4137cc01ce2c15a7dc3aede1313f568dcf8e49",
      "function": "registerUser(bytes32,string,address,string,string,string,uint64)",
      "arguments": [
        "0xe567c8a690864cabe3b1c8c2d97ab50fc0f135650fdfb978beeffa6dd226a7fd",
        "mert",
        "0x24130277A0b62583fc6464e597Ae1f55F9D9e626",
        "resident",
        "clinical,operational,research",
        "confidential",
        "1778315304"
      ],
      "transaction": {
        "from": "0xb9e00f1affa881ce0bd39714f920e19a2fbae9bf",
        "to": "0x0e4137cc01ce2c15a7dc3aede1313f568dcf8e49",
        "gas": "0x391ef",
        "value": "0x0",
        "input": "0xbaa9e417e567c8a690864cabe3b1c8c2d97ab50fc0f135650fdfb978beeffa6dd226a7fd00000000000000000000000000000000000000000000000000000000000000e000000000000000000000000024130277a0b62583fc6464e597ae1f55f9d9e6260000000000000000000000000000000000000000000000000000000000000120000000000000000000000000000000000000000000000000000000000000016000000000000000000000000000000000000000000000000000000000000001a00000000000000000000000000000000000000000000000000000000069fef02800000000000000000000000000000000000000000000000000000000000000046d6572740000000000000000000000000000000000000000000000000000000000000000000000000000000000000000000000000000000000000000000000087265736964656e74000000000000000000000000000000000000000000000000000000000000000000000000000000000000000000000000000000000000001d636c696e6963616c2c6f7065726174696f6e616c2c7265736561726368000000000000000000000000000000000000000000000000000000000000000000000c636f6e666964656e7469616c0000000000000000000000000000000000000000",
        "nonce": "0x1",
        "chainId": "0xaa36a7"
      },
      "additionalContracts": [],
      "isFixedGasLimit": false
    },
    {
      "hash": "0x0a7964bcfe8fce82ecdf09b0dc9256b27e6c88d82a646427365b03437300b0af",
      "transactionType": "CALL",
      "contractName": null,
      "contractAddress": "0x0e4137cc01ce2c15a7dc3aede1313f568dcf8e49",
      "function": "registerUser(bytes32,string,address,string,string,string,uint64)",
      "arguments": [
        "0xe567c8a690864cabe3b1c8c2d97ab50fc0f135650fdfb978beeffa6dd226a7fd",
        "dr-yildiz",
        "0xF7Af0e21De9fbb36983E59Dc5F39187f88E4987c",
        "admin",
        "clinical,operational,research,billing,executive",
        "restricted",
        "1778315304"
      ],
      "transaction": {
        "from": "0xb9e00f1affa881ce0bd39714f920e19a2fbae9bf",
        "to": "0x0e4137cc01ce2c15a7dc3aede1313f568dcf8e49",
        "gas": "0x4835d",
        "value": "0x0",
        "input": "0xbaa9e417e567c8a690864cabe3b1c8c2d97ab50fc0f135650fdfb978beeffa6dd226a7fd00000000000000000000000000000000000000000000000000000000000000e0000000000000000000000000f7af0e21de9fbb36983e59dc5f39187f88e4987c0000000000000000000000000000000000000000000000000000000000000120000000000000000000000000000000000000000000000000000000000000016000000000000000000000000000000000000000000000000000000000000001c00000000000000000000000000000000000000000000000000000000069fef028000000000000000000000000000000000000000000000000000000000000000964722d79696c64697a0000000000000000000000000000000000000000000000000000000000000000000000000000000000000000000000000000000000000561646d696e000000000000000000000000000000000000000000000000000000000000000000000000000000000000000000000000000000000000000000002f636c696e6963616c2c6f7065726174696f6e616c2c72657365617263682c62696c6c696e672c6578656375746976650000000000000000000000000000000000000000000000000000000000000000000000000000000000000000000000000a7265737472696374656400000000000000000000000000000000000000000000",
        "nonce": "0x2",
        "chainId": "0xaa36a7"
      },
      "additionalContracts": [],
      "isFixedGasLimit": false
    },
    {
      "hash": "0x4c2c57416d3f5a2e64a4ca33c1ba2dfbbb98dcd0b204dc7ef68dfdf21b72365d",
      "transactionType": "CALL",
      "contractName": null,
      "contractAddress": "0x0e4137cc01ce2c15a7dc3aede1313f568dcf8e49",
      "function": "setPartners(bytes32,string)",
      "arguments": [
        "0xe567c8a690864cabe3b1c8c2d97ab50fc0f135650fdfb978beeffa6dd226a7fd",
        "acmeinsurance.zkcontextauth.eth"
      ],
      "transaction": {
        "from": "0xb9e00f1affa881ce0bd39714f920e19a2fbae9bf",
        "to": "0x0e4137cc01ce2c15a7dc3aede1313f568dcf8e49",
        "gas": "0x1309d",
        "value": "0x0",
        "input": "0x78ce0998e567c8a690864cabe3b1c8c2d97ab50fc0f135650fdfb978beeffa6dd226a7fd0000000000000000000000000000000000000000000000000000000000000040000000000000000000000000000000000000000000000000000000000000001f61636d65696e737572616e63652e7a6b636f6e74657874617574682e65746800",
        "nonce": "0x3",
        "chainId": "0xaa36a7"
      },
      "additionalContracts": [],
      "isFixedGasLimit": false
    },
    {
      "hash": "0xd4c929234ec47eff863c44e4924f2e8e8d471c8a991d97b7cbad999bbec807ff",
      "transactionType": "CALL",
      "contractName": null,
      "contractAddress": "0x0e4137cc01ce2c15a7dc3aede1313f568dcf8e49",
      "function": "registerUser(bytes32,string,address,string,string,string,uint64)",
      "arguments": [
        "0x56bad11ea092e3cd1e4288c7e123d913a98fe3760b96df5e4d4fb32684c44bcf",
        "claims-bot",
        "0xC6Dcb8fF538A8A71D852C58ea2D3b504208f2F60",
        "claims-agent",
        "billing",
        "confidential",
        "1778315304"
      ],
      "transaction": {
        "from": "0xb698bbc0cfabf285c3bc59f1fcdec0bc6be056e7",
        "to": "0x0e4137cc01ce2c15a7dc3aede1313f568dcf8e49",
        "gas": "0x39128",
        "value": "0x0",
        "input": "0xbaa9e41756bad11ea092e3cd1e4288c7e123d913a98fe3760b96df5e4d4fb32684c44bcf00000000000000000000000000000000000000000000000000000000000000e0000000000000000000000000c6dcb8ff538a8a71d852c58ea2d3b504208f2f600000000000000000000000000000000000000000000000000000000000000120000000000000000000000000000000000000000000000000000000000000016000000000000000000000000000000000000000000000000000000000000001a00000000000000000000000000000000000000000000000000000000069fef028000000000000000000000000000000000000000000000000000000000000000a636c61696d732d626f7400000000000000000000000000000000000000000000000000000000000000000000000000000000000000000000000000000000000c636c61696d732d6167656e740000000000000000000000000000000000000000000000000000000000000000000000000000000000000000000000000000000762696c6c696e6700000000000000000000000000000000000000000000000000000000000000000000000000000000000000000000000000000000000000000c636f6e666964656e7469616c0000000000000000000000000000000000000000",
        "nonce": "0x0",
        "chainId": "0xaa36a7"
      },
      "additionalContracts": [],
      "isFixedGasLimit": false
    },
    {
      "hash": "0xd0cbdb0846583600e494ff9ca74f44476245a404e98390e206f474c7b447ac16",
      "transactionType": "CALL",
      "contractName": null,
      "contractAddress": "0x0e4137cc01ce2c15a7dc3aede1313f568dcf8e49",
      "function": "setPartners(bytes32,string)",
      "arguments": [
        "0x56bad11ea092e3cd1e4288c7e123d913a98fe3760b96df5e4d4fb32684c44bcf",
        "istanbulhospital.zkcontextauth.eth"
      ],
      "transaction": {
        "from": "0xb698bbc0cfabf285c3bc59f1fcdec0bc6be056e7",
        "to": "0x0e4137cc01ce2c15a7dc3aede1313f568dcf8e49",
        "gas": "0x230d4",
        "value": "0x0",
        "input": "0x78ce099856bad11ea092e3cd1e4288c7e123d913a98fe3760b96df5e4d4fb32684c44bcf00000000000000000000000000000000000000000000000000000000000000400000000000000000000000000000000000000000000000000000000000000022697374616e62756c686f73706974616c2e7a6b636f6e74657874617574682e657468000000000000000000000000000000000000000000000000000000000000",
        "nonce": "0x1",
        "chainId": "0xaa36a7"
      },
      "additionalContracts": [],
      "isFixedGasLimit": false
    }
  ],
  "receipts": [
    {
      "status": "0x1",
      "cumulativeGasUsed": "0x8e7fdb",
      "logs": [],
      "logsBloom": "0x00000000000000000000000000000000000000000000000000000000000000000000000000000000000000000000000000000000000000000000000000000000000000000000000000000000000000000000000000000000000000000000000000000000000000000000000000000000000000000000000000000000000000000000000000000000000000000000000000000000000000000000000000000000000000000000000000000000000000000000000000000000000000000000000000000000000000000000000000000000000000000000000000000000000000000000000000000000000000000000000000000000000000000000000000000000",
      "type": "0x2",
      "transactionHash": "0x8dfa1a00ceb63b03c3cf3cc78f0325349b4fe7574b93c94648ff05a4923db439",
      "transactionIndex": "0x3d",
      "blockHash": "0x04ea391f8569ef3aea1cf78702a83ebaf392c179faa96a85b187990cefd1b9a4",
      "blockNumber": "0xa4665f",
      "gasUsed": "0x5208",
      "effectiveGasPrice": "0xf4258",
      "from": "0x7a30d670ebeb9620e35bc6034aee69c4fa5bc50b",
      "to": "0xb9e00f1affa881ce0bd39714f920e19a2fbae9bf",
      "contractAddress": null
    },
    {
      "status": "0x1",
      "cumulativeGasUsed": "0xa50a7e",
      "logs": [],
      "logsBloom": "0x00000000000000000000000000000000000000000000000000000000000000000000000000000000000000000000000000000000000000000000000000000000000000000000000000000000000000000000000000000000000000000000000000000000000000000000000000000000000000000000000000000000000000000000000000000000000000000000000000000000000000000000000000000000000000000000000000000000000000000000000000000000000000000000000000000000000000000000000000000000000000000000000000000000000000000000000000000000000000000000000000000000000000000000000000000000",
      "type": "0x2",
      "transactionHash": "0xbc987459a25327b4a8949a4b95d572989a8743dab982a265c53fe96bf3b22878",
      "transactionIndex": "0x4c",
      "blockHash": "0x51b923ee981a264534c31758992470223bacd39c88c9089544f68e983faca9a2",
      "blockNumber": "0xa46660",
      "gasUsed": "0x5208",
      "effectiveGasPrice": "0xf4258",
      "from": "0x7a30d670ebeb9620e35bc6034aee69c4fa5bc50b",
      "to": "0xb698bbc0cfabf285c3bc59f1fcdec0bc6be056e7",
      "contractAddress": null
    },
    {
      "status": "0x1",
      "cumulativeGasUsed": "0x1d164cd",
      "logs": [
        {
          "address": "0x0e4137cc01ce2c15a7dc3aede1313f568dcf8e49",
          "topics": [
            "0x213415f26d670758ea66f1e9d1a769ba1c10cd205288304664a1451caf8af847",
            "0xe567c8a690864cabe3b1c8c2d97ab50fc0f135650fdfb978beeffa6dd226a7fd"
          ],
          "data": "0x00000000000000000000000000000000000000000000000000000000000000400000000000000000000000006241b56a38c2dcbe2b43c16fbd1fc38b6475082b0000000000000000000000000000000000000000000000000000000000000005617973656c000000000000000000000000000000000000000000000000000000",
          "blockHash": "0xb7aaa90d6faf2596890c9e0542cd48e0c5510534605b522a807bfcc67f1e8894",
          "blockNumber": "0xa46662",
          "blockTimestamp": "0x69f5b5d8",
          "transactionHash": "0x2c3a28a7827d81988ea558419343e38172b3994bba0d0520642429434f25d41f",
          "transactionIndex": "0xca",
          "logIndex": "0x3fb",
          "removed": false
        }
      ],
      "logsBloom": "0x01000000000000000000000000000000000000000000000000000000000000000800000000000000000000000000000000000000000000000000000000000000000000000000000000000000000000000000000000000000000000000000000000000000000000000000000000000000010000000000000000000000000000000000000000001000000000000000000000000002000000000000000000000000000040000000000000000000000000000000000800000000000000000000000000008000000000000000000000000000000000000000000000000000000040000000000000000000000000000000000000000000000000000000000000000000",
      "type": "0x2",
      "transactionHash": "0x2c3a28a7827d81988ea558419343e38172b3994bba0d0520642429434f25d41f",
      "transactionIndex": "0xca",
      "blockHash": "0xb7aaa90d6faf2596890c9e0542cd48e0c5510534605b522a807bfcc67f1e8894",
      "blockNumber": "0xa46662",
      "gasUsed": "0x29529",
      "effectiveGasPrice": "0xf4256",
      "from": "0xb9e00f1affa881ce0bd39714f920e19a2fbae9bf",
      "to": "0x0e4137cc01ce2c15a7dc3aede1313f568dcf8e49",
      "contractAddress": null
    },
    {
      "status": "0x1",
      "cumulativeGasUsed": "0x5eb3c1",
      "logs": [
        {
          "address": "0x0e4137cc01ce2c15a7dc3aede1313f568dcf8e49",
          "topics": [
            "0x213415f26d670758ea66f1e9d1a769ba1c10cd205288304664a1451caf8af847",
            "0xe567c8a690864cabe3b1c8c2d97ab50fc0f135650fdfb978beeffa6dd226a7fd"
          ],
          "data": "0x000000000000000000000000000000000000000000000000000000000000004000000000000000000000000024130277a0b62583fc6464e597ae1f55f9d9e62600000000000000000000000000000000000000000000000000000000000000046d65727400000000000000000000000000000000000000000000000000000000",
          "blockHash": "0x213144fd6804d3e3c84e958c5034d9dbda6a0a0d5373dbd2064d106e0873e8cd",
          "blockNumber": "0xa46663",
          "blockTimestamp": "0x69f5b5e4",
          "transactionHash": "0xf5cf51f5b09fd1eb64c6d79a0173acf7a19d29d94aee615dbd66f7b89fba5483",
          "transactionIndex": "0x32",
          "logIndex": "0x116",
          "removed": false
        }
      ],
      "logsBloom": "0x01000000000000000000000000000000000000000000000000000000000000000800000000000000000000000000000000000000000000000000000000000000000000000000000000000000000000000000000000000000000000000000000000000000000000000000000000000000010000000000000000000000000000000000000000001000000000000000000000000002000000000000000000000000000040000000000000000000000000000000000800000000000000000000000000008000000000000000000000000000000000000000000000000000000040000000000000000000000000000000000000000000000000000000000000000000",
      "type": "0x2",
      "transactionHash": "0xf5cf51f5b09fd1eb64c6d79a0173acf7a19d29d94aee615dbd66f7b89fba5483",
      "transactionIndex": "0x32",
      "blockHash": "0x213144fd6804d3e3c84e958c5034d9dbda6a0a0d5373dbd2064d106e0873e8cd",
      "blockNumber": "0xa46663",
      "gasUsed": "0x295ad",
      "effectiveGasPrice": "0xf4257",
      "from": "0xb9e00f1affa881ce0bd39714f920e19a2fbae9bf",
      "to": "0x0e4137cc01ce2c15a7dc3aede1313f568dcf8e49",
      "contractAddress": null
    },
    {
      "status": "0x1",
      "cumulativeGasUsed": "0x740620",
      "logs": [
        {
          "address": "0x0e4137cc01ce2c15a7dc3aede1313f568dcf8e49",
          "topics": [
            "0x213415f26d670758ea66f1e9d1a769ba1c10cd205288304664a1451caf8af847",
            "0xe567c8a690864cabe3b1c8c2d97ab50fc0f135650fdfb978beeffa6dd226a7fd"
          ],
          "data": "0x0000000000000000000000000000000000000000000000000000000000000040000000000000000000000000f7af0e21de9fbb36983e59dc5f39187f88e4987c000000000000000000000000000000000000000000000000000000000000000964722d79696c64697a0000000000000000000000000000000000000000000000",
          "blockHash": "0x5e7cc544a6200fc28649f3a519fff7b349610e9e06f868b0e3ad43f5e389088f",
          "blockNumber": "0xa46664",
          "blockTimestamp": "0x69f5b5f0",
          "transactionHash": "0x0a7964bcfe8fce82ecdf09b0dc9256b27e6c88d82a646427365b03437300b0af",
          "transactionIndex": "0x3c",
          "logIndex": "0x125",
          "removed": false
        }
      ],
      "logsBloom": "0x01000000000000000000000000000000000000000000000000000000000000000800000000000000000000000000000000000000000000000000000000000000000000000000000000000000000000000000000000000000000000000000000000000000000000000000000000000000010000000000000000000000000000000000000000001000000000000000000000000002000000000000000000000000000040000000000000000000000000000000000800000000000000000000000000008000000000000000000000000000000000000000000000000000000040000000000000000000000000000000000000000000000000000000000000000000",
      "type": "0x2",
      "transactionHash": "0x0a7964bcfe8fce82ecdf09b0dc9256b27e6c88d82a646427365b03437300b0af",
      "transactionIndex": "0x3c",
      "blockHash": "0x5e7cc544a6200fc28649f3a519fff7b349610e9e06f868b0e3ad43f5e389088f",
      "blockNumber": "0xa46664",
      "gasUsed": "0x34477",
      "effectiveGasPrice": "0xf4257",
      "from": "0xb9e00f1affa881ce0bd39714f920e19a2fbae9bf",
      "to": "0x0e4137cc01ce2c15a7dc3aede1313f568dcf8e49",
      "contractAddress": null
    },
    {
      "status": "0x1",
      "cumulativeGasUsed": "0x9c4b99",
      "logs": [
        {
          "address": "0x0e4137cc01ce2c15a7dc3aede1313f568dcf8e49",
          "topics": [
            "0xfc456b67fe1a94943469ed3aad2eb03d64390834dd69c0800cba407300afc310",
            "0xe567c8a690864cabe3b1c8c2d97ab50fc0f135650fdfb978beeffa6dd226a7fd"
          ],
          "data": "0x0000000000000000000000000000000000000000000000000000000000000020000000000000000000000000000000000000000000000000000000000000001f61636d65696e737572616e63652e7a6b636f6e74657874617574682e65746800",
          "blockHash": "0x74554fb0331da66e321cf4fa580a5e134b7e0b76006da6d47ccd3d51676490c3",
          "blockNumber": "0xa46665",
          "blockTimestamp": "0x69f5b5fc",
          "transactionHash": "0x4c2c57416d3f5a2e64a4ca33c1ba2dfbbb98dcd0b204dc7ef68dfdf21b72365d",
          "transactionIndex": "0x43",
          "logIndex": "0x16f",
          "removed": false
        }
      ],
      "logsBloom": "0x01000000000000000000000000000000000000000000000000000000000000000800000000000000000000000000000000000000000000000000000000000000000000000000000000000000100000000000000000000000000000000000000000000000000000000000000000000000000000000000000000000000000000000000000800001000000000000000000000000002000000000000000000000000000000000000000000000000000000000000000000000000000000000000000000008000000000000000000020000000000000000000000000000000000040000000000000000000000000000000000000000000000000000000000000000000",
      "type": "0x2",
      "transactionHash": "0x4c2c57416d3f5a2e64a4ca33c1ba2dfbbb98dcd0b204dc7ef68dfdf21b72365d",
      "transactionIndex": "0x43",
      "blockHash": "0x74554fb0331da66e321cf4fa580a5e134b7e0b76006da6d47ccd3d51676490c3",
      "blockNumber": "0xa46665",
      "gasUsed": "0xd049",
      "effectiveGasPrice": "0xf4257",
      "from": "0xb9e00f1affa881ce0bd39714f920e19a2fbae9bf",
      "to": "0x0e4137cc01ce2c15a7dc3aede1313f568dcf8e49",
      "contractAddress": null
    },
    {
      "status": "0x1",
      "cumulativeGasUsed": "0x829dd8",
      "logs": [
        {
          "address": "0x0e4137cc01ce2c15a7dc3aede1313f568dcf8e49",
          "topics": [
            "0x213415f26d670758ea66f1e9d1a769ba1c10cd205288304664a1451caf8af847",
            "0x56bad11ea092e3cd1e4288c7e123d913a98fe3760b96df5e4d4fb32684c44bcf"
          ],
          "data": "0x0000000000000000000000000000000000000000000000000000000000000040000000000000000000000000c6dcb8ff538a8a71d852c58ea2d3b504208f2f60000000000000000000000000000000000000000000000000000000000000000a636c61696d732d626f7400000000000000000000000000000000000000000000",
          "blockHash": "0xd6dab224c05de1d34e2954634daa557c3ddf81875b845e4714fbf7e9ab82bae1",
          "blockNumber": "0xa46666",
          "blockTimestamp": "0x69f5b608",
          "transactionHash": "0xd4c929234ec47eff863c44e4924f2e8e8d471c8a991d97b7cbad999bbec807ff",
          "transactionIndex": "0x35",
          "logIndex": "0x115",
          "removed": false
        }
      ],
      "logsBloom": "0x01000000000000000000000000000000000000000000000000000000000000000800000000000000000000000000000000000000000000000000000000000000000000000000000000000000000000000000000001000000000000000000000000000000001000000000000000000000010000000000000000000000000000000000000000000000000000000000000000000000000000008000000000000000000040000000000000000000000000000000000800000000000000000000000000000000000000000000000000000000000000000000000000000000000040000000000000000000000000000000000000000000000000000000000000000000",
      "type": "0x2",
      "transactionHash": "0xd4c929234ec47eff863c44e4924f2e8e8d471c8a991d97b7cbad999bbec807ff",
      "transactionIndex": "0x35",
      "blockHash": "0xd6dab224c05de1d34e2954634daa557c3ddf81875b845e4714fbf7e9ab82bae1",
      "blockNumber": "0xa46666",
      "gasUsed": "0x2951d",
      "effectiveGasPrice": "0xf4257",
      "from": "0xb698bbc0cfabf285c3bc59f1fcdec0bc6be056e7",
      "to": "0x0e4137cc01ce2c15a7dc3aede1313f568dcf8e49",
      "contractAddress": null
    },
    {
      "status": "0x1",
      "cumulativeGasUsed": "0x8cf869",
      "logs": [
        {
          "address": "0x0e4137cc01ce2c15a7dc3aede1313f568dcf8e49",
          "topics": [
            "0xfc456b67fe1a94943469ed3aad2eb03d64390834dd69c0800cba407300afc310",
            "0x56bad11ea092e3cd1e4288c7e123d913a98fe3760b96df5e4d4fb32684c44bcf"
          ],
          "data": "0x00000000000000000000000000000000000000000000000000000000000000200000000000000000000000000000000000000000000000000000000000000022697374616e62756c686f73706974616c2e7a6b636f6e74657874617574682e657468000000000000000000000000000000000000000000000000000000000000",
          "blockHash": "0xdb82b73a0db5f7d0ebb12032086442a3e88cfbaa0210f4a6202b306151af5d6e",
          "blockNumber": "0xa46667",
          "blockTimestamp": "0x69f5b614",
          "transactionHash": "0xd0cbdb0846583600e494ff9ca74f44476245a404e98390e206f474c7b447ac16",
          "transactionIndex": "0x42",
          "logIndex": "0x113",
          "removed": false
        }
      ],
      "logsBloom": "0x01000000000000000000000000000000000000000000000000000000000000000800000000000000000000000000000000000000000000000000000000000000000000000000000000000000100000000000000001000000000000000000000000000000001000000000000000000000000000000000000000000000000000000000000800000000000000000000000000000000000000008000000000000000000000000000000000000000000000000000000000000000000000000000000000000000000000000000000020000000000000000000000000000000000040000000000000000000000000000000000000000000000000000000000000000000",
      "type": "0x2",
      "transactionHash": "0xd0cbdb0846583600e494ff9ca74f44476245a404e98390e206f474c7b447ac16",
      "transactionIndex": "0x42",
      "blockHash": "0xdb82b73a0db5f7d0ebb12032086442a3e88cfbaa0210f4a6202b306151af5d6e",
      "blockNumber": "0xa46667",
      "gasUsed": "0x17f79",
      "effectiveGasPrice": "0xf4257",
      "from": "0xb698bbc0cfabf285c3bc59f1fcdec0bc6be056e7",
      "to": "0x0e4137cc01ce2c15a7dc3aede1313f568dcf8e49",
      "contractAddress": null
    }
  ],
  "libraries": [],
  "pending": [],
  "returns": {},
  "timestamp": 1777710613671,
  "chain": 11155111,
  "commit": "8cb8c75"
}