{
  "transactions": [
    {
      "hash": "0x80a793793c7164ecca88ed71ce75be9206cd9357afae954e1fdc0bf46b70fb4b",
      "transactionType": "CALL",
      "contractName": null,
      "contractAddress": "0xe5722c5163e673a9026742f35d6145116a38bc8e",
      "function": "registerUser(bytes32,string,address,string,string,string,uint64)",
      "arguments": [
        "0xe567c8a690864cabe3b1c8c2d97ab50fc0f135650fdfb978beeffa6dd226a7fd",
        "aysel",
        "0x6241b56a38C2dcBE2B43c16FBd1fC38b6475082b",
        "nurse",
        "clinical,operational",
        "confidential",
        "1778315664"
      ],
      "transaction": {
        "from": "0xb9e00f1affa881ce0bd39714f920e19a2fbae9bf",
        "to": "0xe5722c5163e673a9026742f35d6145116a38bc8e",
        "gas": "0x3c6f2",
        "value": "0x0",
        "input": "0xbaa9e417e567c8a690864cabe3b1c8c2d97ab50fc0f135650fdfb978beeffa6dd226a7fd00000000000000000000000000000000000000000000000000000000000000e00000000000000000000000006241b56a38c2dcbe2b43c16fbd1fc38b6475082b0000000000000000000000000000000000000000000000000000000000000120000000000000000000000000000000000000000000000000000000000000016000000000000000000000000000000000000000000000000000000000000001a00000000000000000000000000000000000000000000000000000000069fef1900000000000000000000000000000000000000000000000000000000000000005617973656c00000000000000000000000000000000000000000000000000000000000000000000000000000000000000000000000000000000000000000000056e757273650000000000000000000000000000000000000000000000000000000000000000000000000000000000000000000000000000000000000000000014636c696e6963616c2c6f7065726174696f6e616c000000000000000000000000000000000000000000000000000000000000000000000000000000000000000c636f6e666964656e7469616c0000000000000000000000000000000000000000",
        "nonce": "0x4",
        "chainId": "0xaa36a7"
      },
      "additionalContracts": [],
      "isFixedGasLimit": false
    },
    {
      "hash": "0xfb0bb84ee5a21e7b25985d24c1f9e8355503c95879f185634e9878d25787bf00",
      "transactionType": "CALL",
      "contractName": null,
      "contractAddress": "0xe5722c5163e673a9026742f35d6145116a38bc8e",
      "function": "registerUser(bytes32,string,address,string,string,string,uint64)",
      "arguments": [
        "0xe567c8a690864cabe3b1c8c2d97ab50fc0f135650fdfb978beeffa6dd226a7fd",
        "mert",
        "0x24130277A0b62583fc6464e597Ae1f55F9D9e626",
        "resident",
        "clinical,operational,research",
        "confidential",
        "1778315664"
      ],
      "transaction": {
        "from": "0xb9e00f1affa881ce0bd39714f920e19a2fbae9bf",
        "to": "0xe5722c5163e673a9026742f35d6145116a38bc8e",
        "gas": "0x391ef",
        "value": "0x0",
        "input": "0xbaa9e417e567c8a690864cabe3b1c8c2d97ab50fc0f135650fdfb978beeffa6dd226a7fd00000000000000000000000000000000000000000000000000000000000000e000000000000000000000000024130277a0b62583fc6464e597ae1f55f9d9e6260000000000000000000000000000000000000000000000000000000000000120000000000000000000000000000000000000000000000000000000000000016000000000000000000000000000000000000000000000000000000000000001a00000000000000000000000000000000000000000000000000000000069fef19000000000000000000000000000000000000000000000000000000000000000046d6572740000000000000000000000000000000000000000000000000000000000000000000000000000000000000000000000000000000000000000000000087265736964656e74000000000000000000000000000000000000000000000000000000000000000000000000000000000000000000000000000000000000001d636c696e6963616c2c6f7065726174696f6e616c2c7265736561726368000000000000000000000000000000000000000000000000000000000000000000000c636f6e666964656e7469616c0000000000000000000000000000000000000000",
        "nonce": "0x5",
        "chainId": "0xaa36a7"
      },
      "additionalContracts": [],
      "isFixedGasLimit": false
    },
    {
      "hash": "0xf6dd9c3c8db71cbc5ce6a7f40acd67d1cad1ee1ea0c9e3573f7be09852cbd8ea",
      "transactionType": "CALL",
      "contractName": null,
      "contractAddress": "0xe5722c5163e673a9026742f35d6145116a38bc8e",
      "function": "registerUser(bytes32,string,address,string,string,string,uint64)",
      "arguments": [
        "0xe567c8a690864cabe3b1c8c2d97ab50fc0f135650fdfb978beeffa6dd226a7fd",
        "dr-yildiz",
        "0xF7Af0e21De9fbb36983E59Dc5F39187f88E4987c",
        "admin",
        "clinical,operational,research,billing,executive",
        "restricted",
        "1778315664"
      ],
      "transaction": {
        "from": "0xb9e00f1affa881ce0bd39714f920e19a2fbae9bf",
        "to": "0xe5722c5163e673a9026742f35d6145116a38bc8e",
        "gas": "0x4835d",
        "value": "0x0",
        "input": "0xbaa9e417e567c8a690864cabe3b1c8c2d97ab50fc0f135650fdfb978beeffa6dd226a7fd00000000000000000000000000000000000000000000000000000000000000e0000000000000000000000000f7af0e21de9fbb36983e59dc5f39187f88e4987c0000000000000000000000000000000000000000000000000000000000000120000000000000000000000000000000000000000000000000000000000000016000000000000000000000000000000000000000000000000000000000000001c00000000000000000000000000000000000000000000000000000000069fef190000000000000000000000000000000000000000000000000000000000000000964722d79696c64697a0000000000000000000000000000000000000000000000000000000000000000000000000000000000000000000000000000000000000561646d696e000000000000000000000000000000000000000000000000000000000000000000000000000000000000000000000000000000000000000000002f636c696e6963616c2c6f7065726174696f6e616c2c72657365617263682c62696c6c696e672c6578656375746976650000000000000000000000000000000000000000000000000000000000000000000000000000000000000000000000000a7265737472696374656400000000000000000000000000000000000000000000",
        "nonce": "0x6",
        "chainId": "0xaa36a7"
      },
      "additionalContracts": [],
      "isFixedGasLimit": false
    },
    {
      "hash": "0x4d8ba6ae19cb67f1131d8dc5d70354a2e25c99c24a00e41dbed8e55586162c57",
      "transactionType": "CALL",
      "contractName": null,
      "contractAddress": "0xe5722c5163e673a9026742f35d6145116a38bc8e",
      "function": "setPartners(bytes32,string)",
      "arguments": [
        "0xe567c8a690864cabe3b1c8c2d97ab50fc0f135650fdfb978beeffa6dd226a7fd",
        "acmeinsurance.zkcontextauth.eth"
      ],
      "transaction": {
        "from": "0xb9e00f1affa881ce0bd39714f920e19a2fbae9bf",
        "to": "0xe5722c5163e673a9026742f35d6145116a38bc8e",
        "gas": "0x1309d",
        "value": "0x0",
        "input": "0x78ce0998e567c8a690864cabe3b1c8c2d97ab50fc0f135650fdfb978beeffa6dd226a7fd0000000000000000000000000000000000000000000000000000000000000040000000000000000000000000000000000000000000000000000000000000001f61636d65696e737572616e63652e7a6b636f6e74657874617574682e65746800",
        "nonce": "0x7",
        "chainId": "0xaa36a7"
      },
      "additionalContracts": [],
      "isFixedGasLimit": false
    },
    {
      "hash": "0x66bd0a8a908b39b5a8942991da1499ad2eb441aec8cfbdf16aed2175ef105270",
      "transactionType": "CALL",
      "contractName": null,
      "contractAddress": "0xe5722c5163e673a9026742f35d6145116a38bc8e",
      "function": "registerUser(bytes32,string,address,string,string,string,uint64)",
      "arguments": [
        "0x56bad11ea092e3cd1e4288c7e123d913a98fe3760b96df5e4d4fb32684c44bcf",
        "claims-bot",
        "0xC6Dcb8fF538A8A71D852C58ea2D3b504208f2F60",
        "claims-agent",
        "billing",
        "confidential",
        "1778315664"
      ],
      "transaction": {
        "from": "0xb698bbc0cfabf285c3bc59f1fcdec0bc6be056e7",
        "to": "0xe5722c5163e673a9026742f35d6145116a38bc8e",
        "gas": "0x39128",
        "value": "0x0",
        "input": "0xbaa9e41756bad11ea092e3cd1e4288c7e123d913a98fe3760b96df5e4d4fb32684c44bcf00000000000000000000000000000000000000000000000000000000000000e0000000000000000000000000c6dcb8ff538a8a71d852c58ea2d3b504208f2f600000000000000000000000000000000000000000000000000000000000000120000000000000000000000000000000000000000000000000000000000000016000000000000000000000000000000000000000000000000000000000000001a00000000000000000000000000000000000000000000000000000000069fef190000000000000000000000000000000000000000000000000000000000000000a636c61696d732d626f7400000000000000000000000000000000000000000000000000000000000000000000000000000000000000000000000000000000000c636c61696d732d6167656e740000000000000000000000000000000000000000000000000000000000000000000000000000000000000000000000000000000762696c6c696e6700000000000000000000000000000000000000000000000000000000000000000000000000000000000000000000000000000000000000000c636f6e666964656e7469616c0000000000000000000000000000000000000000",
        "nonce": "0x2",
        "chainId": "0xaa36a7"
      },
      "additionalContracts": [],
      "isFixedGasLimit": false
    },
    {
      "hash": "0x141db860f49c22659743a62aa059f0b7a4c4ef968d1f7a88b3c371286569d1e6",
      "transactionType": "CALL",
      "contractName": null,
      "contractAddress": "0xe5722c5163e673a9026742f35d6145116a38bc8e",
      "function": "setPartners(bytes32,string)",
      "arguments": [
        "0x56bad11ea092e3cd1e4288c7e123d913a98fe3760b96df5e4d4fb32684c44bcf",
        "istanbulhospital.zkcontextauth.eth"
      ],
      "transaction": {
        "from": "0xb698bbc0cfabf285c3bc59f1fcdec0bc6be056e7",
        "to": "0xe5722c5163e673a9026742f35d6145116a38bc8e",
        "gas": "0x230d4",
        "value": "0x0",
        "input": "0x78ce099856bad11ea092e3cd1e4288c7e123d913a98fe3760b96df5e4d4fb32684c44bcf00000000000000000000000000000000000000000000000000000000000000400000000000000000000000000000000000000000000000000000000000000022697374616e62756c686f73706974616c2e7a6b636f6e74657874617574682e657468000000000000000000000000000000000000000000000000000000000000",
        "nonce": "0x3",
        "chainId": "0xaa36a7"
      },
      "additionalContracts": [],
      "isFixedGasLimit": false
    }
  ],
  "receipts": [
    {
      "status": "0x1",
      "cumulativeGasUsed": "0xdd514e",
      "logs": [
        {
          "address": "0xe5722c5163e673a9026742f35d6145116a38bc8e",
          "topics": [
            "0x213415f26d670758ea66f1e9d1a769ba1c10cd205288304664a1451caf8af847",
            "0xe567c8a690864cabe3b1c8c2d97ab50fc0f135650fdfb978beeffa6dd226a7fd"
          ],
          "data": "0x00000000000000000000000000000000000000000000000000000000000000400000000000000000000000006241b56a38c2dcbe2b43c16fbd1fc38b6475082b0000000000000000000000000000000000000000000000000000000000000005617973656c000000000000000000000000000000000000000000000000000000",
          "blockHash": "0xed5846486910dc2be573e40cc6fc8c6608e5d10c5c56c2bf308fb4dc5498f410",
          "blockNumber": "0xa4667b",
          "blockTimestamp": "0x69f5b728",
          "transactionHash": "0x80a793793c7164ecca88ed71ce75be9206cd9357afae954e1fdc0bf46b70fb4b",
          "transactionIndex": "0x6f",
          "logIndex": "0x249",
          "removed": false
        }
      ],
      "logsBloom": "0x00000000000000000000000000000000000000000000000000000000000000000000000000000000000000000000000000000000000000000000000000000000000000000000004000000000000000000000000000000000000000000000000000000000000000000000000000000000010000000000000000000000000000000000000000001000000000000000000000000002000000000000000000000000000040000000000000000000000000000000000880000000000000000000000000008000000000000000000000000000000000000008000000000000000000000000000000000000000000000000000000000000000000000000000000000000",
      "type": "0x2",
      "transactionHash": "0x80a793793c7164ecca88ed71ce75be9206cd9357afae954e1fdc0bf46b70fb4b",
      "transactionIndex": "0x6f",
      "blockHash": "0xed5846486910dc2be573e40cc6fc8c6608e5d10c5c56c2bf308fb4dc5498f410",
      "blockNumber": "0xa4667b",
      "gasUsed": "0x29529",
      "effectiveGasPrice": "0xf4254",
      "from": "0xb9e00f1affa881ce0bd39714f920e19a2fbae9bf",
      "to": "0xe5722c5163e673a9026742f35d6145116a38bc8e",
      "contractAddress": null
    },
    {
      "status": "0x1",
      "cumulativeGasUsed": "0x782b1b",
      "logs": [
        {
          "address": "0xe5722c5163e673a9026742f35d6145116a38bc8e",
          "topics": [
            "0x213415f26d670758ea66f1e9d1a769ba1c10cd205288304664a1451caf8af847",
            "0xe567c8a690864cabe3b1c8c2d97ab50fc0f135650fdfb978beeffa6dd226a7fd"
          ],
          "data": "0x000000000000000000000000000000000000000000000000000000000000004000000000000000000000000024130277a0b62583fc6464e597ae1f55f9d9e62600000000000000000000000000000000000000000000000000000000000000046d65727400000000000000000000000000000000000000000000000000000000",
          "blockHash": "0x21a5699a9428b677b99a9c1153abf7fcc28e3b17bb224e4e76c6983499da6ac9",
          "blockNumber": "0xa4667c",
          "blockTimestamp": "0x69f5b734",
          "transactionHash": "0xfb0bb84ee5a21e7b25985d24c1f9e8355503c95879f185634e9878d25787bf00",
          "transactionIndex": "0x34",
          "logIndex": "0xc8",
          "removed": false
        }
      ],
      "logsBloom": "0x00000000000000000000000000000000000000000000000000000000000000000000000000000000000000000000000000000000000000000000000000000000000000000000004000000000000000000000000000000000000000000000000000000000000000000000000000000000010000000000000000000000000000000000000000001000000000000000000000000002000000000000000000000000000040000000000000000000000000000000000880000000000000000000000000008000000000000000000000000000000000000008000000000000000000000000000000000000000000000000000000000000000000000000000000000000",
      "type": "0x2",
      "transactionHash": "0xfb0bb84ee5a21e7b25985d24c1f9e8355503c95879f185634e9878d25787bf00",
      "transactionIndex": "0x34",
      "blockHash": "0x21a5699a9428b677b99a9c1153abf7fcc28e3b17bb224e4e76c6983499da6ac9",
      "blockNumber": "0xa4667c",
      "gasUsed": "0x295ad",
      "effectiveGasPrice": "0xf4255",
      "from": "0xb9e00f1affa881ce0bd39714f920e19a2fbae9bf",
      "to": "0xe5722c5163e673a9026742f35d6145116a38bc8e",
      "contractAddress": null
    },
    {
      "status": "0x1",
      "cumulativeGasUsed": "0x5b4a2a",
      "logs": [
        {
          "address": "0xe5722c5163e673a9026742f35d6145116a38bc8e",
          "topics": [
            "0x213415f26d670758ea66f1e9d1a769ba1c10cd205288304664a1451caf8af847",
            "0xe567c8a690864cabe3b1c8c2d97ab50fc0f135650fdfb978beeffa6dd226a7fd"
          ],
          "data": "0x0000000000000000000000000000000000000000000000000000000000000040000000000000000000000000f7af0e21de9fbb36983e59dc5f39187f88e4987c000000000000000000000000000000000000000000000000000000000000000964722d79696c64697a0000000000000000000000000000000000000000000000",
          "blockHash": "0x3a82ab483d561961aaf657e122d93cab8e2d581943cbeb4d1b669ea46bdb8089",
          "blockNumber": "0xa4667d",
          "blockTimestamp": "0x69f5b740",
          "transactionHash": "0xf6dd9c3c8db71cbc5ce6a7f40acd67d1cad1ee1ea0c9e3573f7be09852cbd8ea",
          "transactionIndex": "0x29",
          "logIndex": "0xb8",
          "removed": false
        }
      ],
      "logsBloom": "0x00000000000000000000000000000000000000000000000000000000000000000000000000000000000000000000000000000000000000000000000000000000000000000000004000000000000000000000000000000000000000000000000000000000000000000000000000000000010000000000000000000000000000000000000000001000000000000000000000000002000000000000000000000000000040000000000000000000000000000000000880000000000000000000000000008000000000000000000000000000000000000008000000000000000000000000000000000000000000000000000000000000000000000000000000000000",
      "type": "0x2",
      "transactionHash": "0xf6dd9c3c8db71cbc5ce6a7f40acd67d1cad1ee1ea0c9e3573f7be09852cbd8ea",
      "transactionIndex": "0x29",
      "blockHash": "0x3a82ab483d561961aaf657e122d93cab8e2d581943cbeb4d1b669ea46bdb8089",
      "blockNumber": "0xa4667d",
      "gasUsed": "0x34477",
      "effectiveGasPrice": "0xf4255",
      "from": "0xb9e00f1affa881ce0bd39714f920e19a2fbae9bf",
      "to": "0xe5722c5163e673a9026742f35d6145116a38bc8e",
      "contractAddress": null
    },
    {
      "status": "0x1",
      "cumulativeGasUsed": "0x63e3d8",
      "logs": [
        {
          "address": "0xe5722c5163e673a9026742f35d6145116a38bc8e",
          "topics": [
            "0xfc456b67fe1a94943469ed3aad2eb03d64390834dd69c0800cba407300afc310",
            "0xe567c8a690864cabe3b1c8c2d97ab50fc0f135650fdfb978beeffa6dd226a7fd"
          ],
          "data": "0x0000000000000000000000000000000000000000000000000000000000000020000000000000000000000000000000000000000000000000000000000000001f61636d65696e737572616e63652e7a6b636f6e74657874617574682e65746800",
          "blockHash": "0xa217cba49493a5b1244c06391292fbfd3cad778e20900590098d0701b9f3abc3",
          "blockNumber": "0xa4667e",
          "blockTimestamp": "0x69f5b74c",
          "transactionHash": "0x4d8ba6ae19cb67f1131d8dc5d70354a2e25c99c24a00e41dbed8e55586162c57",
          "transactionIndex": "0x2d",
          "logIndex": "0x10b",
          "removed": false
        }
      ],
      "logsBloom": "0x00000000000000000000000000000000000000000000000000000000000000000000000000000000000000000000000000000000000000000000000000000000000000000000004000000000100000000000000000000000000000000000000000000000000000000000000000000000000000000000000000000000000000000000000800001000000000000000000000000002000000000000000000000000000000000000000000000000000000000000000080000000000000000000000000008000000000000000000020000000000000000008000000000000000000000000000000000000000000000000000000000000000000000000000000000000",
      "type": "0x2",
      "transactionHash": "0x4d8ba6ae19cb67f1131d8dc5d70354a2e25c99c24a00e41dbed8e55586162c57",
      "transactionIndex": "0x2d",
      "blockHash": "0xa217cba49493a5b1244c06391292fbfd3cad778e20900590098d0701b9f3abc3",
      "blockNumber": "0xa4667e",
      "gasUsed": "0xd049",
      "effectiveGasPrice": "0xf4255",
      "from": "0xb9e00f1affa881ce0bd39714f920e19a2fbae9bf",
      "to": "0xe5722c5163e673a9026742f35d6145116a38bc8e",
      "contractAddress": null
    },
    {
      "status": "0x1",
      "cumulativeGasUsed": "0x6441de",
      "logs": [
        {
          "address": "0xe5722c5163e673a9026742f35d6145116a38bc8e",
          "topics": [
            "0x213415f26d670758ea66f1e9d1a769ba1c10cd205288304664a1451caf8af847",
            "0x56bad11ea092e3cd1e4288c7e123d913a98fe3760b96df5e4d4fb32684c44bcf"
          ],
          "data": "0x0000000000000000000000000000000000000000000000000000000000000040000000000000000000000000c6dcb8ff538a8a71d852c58ea2d3b504208f2f60000000000000000000000000000000000000000000000000000000000000000a636c61696d732d626f7400000000000000000000000000000000000000000000",
          "blockHash": "0x54969258271123115a2a114e94599a1c50907c4ce540b0a0c0539563b3cfd682",
          "blockNumber": "0xa4667f",
          "blockTimestamp": "0x69f5b758",
          "transactionHash": "0x66bd0a8a908b39b5a8942991da1499ad2eb441aec8cfbdf16aed2175ef105270",
          "transactionIndex": "0x32",
          "logIndex": "0xaf",
          "removed": false
        }
      ],
      "logsBloom": "0x00000000000000000000000000000000000000000000000000000000000000000000000000000000000000000000000000000000000000000000000000000000000000000000004000000000000000000000000001000000000000000000000000000000001000000000000000000000010000000000000000000000000000000000000000000000000000000000000000000000000000008000000000000000000040000000000000000000000000000000000880000000000000000000000000000000000000000000000000000000000000000008000000000000000000000000000000000000000000000000000000000000000000000000000000000000",
      "type": "0x2",
      "transactionHash": "0x66bd0a8a908b39b5a8942991da1499ad2eb441aec8cfbdf16aed2175ef105270",
      "transactionIndex": "0x32",
      "blockHash": "0x54969258271123115a2a114e94599a1c50907c4ce540b0a0c0539563b3cfd682",
      "blockNumber": "0xa4667f",
      "gasUsed": "0x2951d",
      "effectiveGasPrice": "0xf4255",
      "from": "0xb698bbc0cfabf285c3bc59f1fcdec0bc6be056e7",
      "to": "0xe5722c5163e673a9026742f35d6145116a38bc8e",
      "contractAddress": null
    },
    {
      "status": "0x1",
      "cumulativeGasUsed": "0x86a077",
      "logs": [
        {
          "address": "0xe5722c5163e673a9026742f35d6145116a38bc8e",
          "topics": [
            "0xfc456b67fe1a94943469ed3aad2eb03d64390834dd69c0800cba407300afc310",
            "0x56bad11ea092e3cd1e4288c7e123d913a98fe3760b96df5e4d4fb32684c44bcf"
          ],
          "data": "0x00000000000000000000000000000000000000000000000000000000000000200000000000000000000000000000000000000000000000000000000000000022697374616e62756c686f73706974616c2e7a6b636f6e74657874617574682e657468000000000000000000000000000000000000000000000000000000000000",
          "blockHash": "0x65c4f3cfacbde98722d5ec8449dd15bee108efcca0dd4b3a7dc3610a45bb6635",
          "blockNumber": "0xa46680",
          "blockTimestamp": "0x69f5b764",
          "transactionHash": "0x141db860f49c22659743a62aa059f0b7a4c4ef968d1f7a88b3c371286569d1e6",
          "transactionIndex": "0x40",
          "logIndex": "0x153",
          "removed": false
        }
      ],
      "logsBloom": "0x00000000000000000000000000000000000000000000000000000000000000000000000000000000000000000000000000000000000000000000000000000000000000000000004000000000100000000000000001000000000000000000000000000000001000000000000000000000000000000000000000000000000000000000000800000000000000000000000000000000000000008000000000000000000000000000000000000000000000000000000080000000000000000000000000000000000000000000000020000000000000000008000000000000000000000000000000000000000000000000000000000000000000000000000000000000",
      "type": "0x2",
      "transactionHash": "0x141db860f49c22659743a62aa059f0b7a4c4ef968d1f7a88b3c371286569d1e6",
      "transactionIndex": "0x40",
      "blockHash": "0x65c4f3cfacbde98722d5ec8449dd15bee108efcca0dd4b3a7dc3610a45bb6635",
      "blockNumber": "0xa46680",
      "gasUsed": "0x17f79",
      "effectiveGasPrice": "0xf4255",
      "from": "0xb698bbc0cfabf285c3bc59f1fcdec0bc6be056e7",
      "to": "0xe5722c5163e673a9026742f35d6145116a38bc8e",
      "contractAddress": null
    }
  ],
  "libraries": [],
  "pending": [],
  "returns": {},
  "timestamp": 1777710948839,
  "chain": 11155111,
  "commit": "8cb8c75"
}