{
  "transactions": [
    {
      "hash": "0xeaf300d766c6070daab58be1ee2e34aa41c6a0cd5a12fa3703fa97436a58d298",
      "transactionType": "CALL",
      "contractName": null,
      "contractAddress": "0x57f1887a8bf19b14fc0df6fd9b2acc9af147ea85",
      "function": "setApprovalForAll(address,bool)",
      "arguments": [
        "0x0635513f179D50A207757E05759CbD106d7dFcE8",
        "true"
      ],
      "transaction": {
        "from": "0x7a30d670ebeb9620e35bc6034aee69c4fa5bc50b",
        "to": "0x57f1887a8bf19b14fc0df6fd9b2acc9af147ea85",
        "gas": "0xf97a",
        "value": "0x0",
        "input": "0xa22cb4650000000000000000000000000635513f179d50a207757e05759cbd106d7dfce80000000000000000000000000000000000000000000000000000000000000001",
        "nonce": "0x2f",
        "chainId": "0xaa36a7"
      },
      "additionalContracts": [],
      "isFixedGasLimit": false
    },
    {
      "hash": "0x9bf7371487a9c5d532a004ac20efa3084465815a4aa986b3ff873e379cab4a34",
      "transactionType": "CALL",
      "contractName": null,
      "contractAddress": "0x0635513f179d50a207757e05759cbd106d7dfce8",
      "function": "wrapETH2LD(string,address,uint16,address)",
      "arguments": [
        "zkcontextauth",
        "0x7a30d670ebEb9620E35bC6034AeE69c4Fa5BC50B",
        "1",
        "0x0000000000000000000000000000000000000000"
      ],
      "transaction": {
        "from": "0x7a30d670ebeb9620e35bc6034aee69c4fa5bc50b",
        "to": "0x0635513f179d50a207757e05759cbd106d7dfce8",
        "gas": "0x294f5",
        "value": "0x0",
        "input": "0x8cf8b41e00000000000000000000000000000000000000000000000000000000000000800000000000000000000000007a30d670ebeb9620e35bc6034aee69c4fa5bc50b00000000000000000000000000000000000000000000000000000000000000010000000000000000000000000000000000000000000000000000000000000000000000000000000000000000000000000000000000000000000000000000000d7a6b636f6e746578746175746800000000000000000000000000000000000000",
        "nonce": "0x30",
        "chainId": "0xaa36a7"
      },
      "additionalContracts": [],
      "isFixedGasLimit": false
    },
    {
      "hash": "0xe7b1a56a348469b4e08006911f985bf49d1b849f4a6150296d5818c9d9aac700",
      "transactionType": "CREATE",
      "contractName": "ZkcaResolver",
      "contractAddress": "0x0e4137cc01ce2c15a7dc3aede1313f568dcf8e49",
      "function": null,
      "arguments": [
        "0x0635513f179D50A207757E05759CbD106d7dFcE8",
        "0x8b02aafa31da84e3fbd05ade46ba2ebf995c69ca7b429b77b08bf5dc37dc49dd"
      ],
      "transaction": {
        "from": "0x7a30d670ebeb9620e35bc6034aee69c4fa5bc50b",
        "gas": "0x21f6d1",
        "value": "0x0",
        "input": "0x60c0346100d057601f611ef538819003918201601f19168301916001600160401b038311848410176100d55780849260409485528339810103126100d0578051906001600160a01b03821682036100d057602001519060805260a052604051611e0990816100ec823960805181818161061f01528181610745015281816107ce01528181610aad01528181610e6f015281816112240152611436015260a051818181610a340152818161119f015281816111d9015281816113dd015281816115940152818161160801526116630152f35b600080fd5b634e487b7160e01b600052604160045260246000fdfe60806040526004361015610013575b600080fd5b60003560e01c806301ffc9a71461012b57806307be6f9914610122578063158d0595146101195780633b3b57de1461011057806359d1d43c1461010757806378ce0998146100fe5780639061b923146100f55780639f8e3e0d146100ec578063a8e5fbc0146100e3578063baa9e417146100da578063cd544a7b146100d1578063d0aea43a146100c8578063d9ca69e4146100bf5763f3068a00146100b757600080fd5b61000e610a1b565b5061000e610921565b5061000e6108e6565b5061000e6108b9565b5061000e61081b565b5061000e6107b7565b5061000e61070f565b5061000e6106b3565b5061000e6105e9565b5061000e6105ba565b5061000e610542565b5061000e6104ab565b5061000e6103b9565b503461000e57602036600319011261000e5760043563ffffffff60e01b811680910361000e576020906301ffc9a760e01b81149081156101a1575b8115610190575b811561017f575b506040519015158152f35b631d9dabef60e11b14905038610174565b631674750f60e21b8114915061016d565b639061b92360e01b81149150610166565b90600182811c921680156101e2575b60208310146101cc57565b634e487b7160e01b600052602260045260246000fd5b91607f16916101c1565b50634e487b7160e01b600052604160045260246000fd5b604081019081106001600160401b0382111761021e57604052565b6102266101ec565b604052565b602081019081106001600160401b0382111761021e57604052565b90601f801991011681019081106001600160401b0382111761021e57604052565b906040519182600082549261027b846101b2565b9081845260019485811690816000146102ea57506001146102a7575b50506102a592500383610246565b565b9093915060005260209081600020936000915b8183106102d25750506102a593508201013880610297565b855488840185015294850194879450918301916102ba565b9150506102a594506020925060ff191682840152151560051b8201013880610297565b919082519283825260005b848110610339575050826000602080949584010152601f8019910116010190565b602081830181015184830182015201610318565b949897969361039260e097946103846001600160401b03956103a09560018060a01b03168a526101008060208c01528a019061030d565b9088820360408a015261030d565b90868203606088015261030d565b97166080840152151560a0830152151560c08201520152565b503461000e57604036600319011261000e5760043560005260006020526040600020602435600052602052604060002060018060a01b0381541661044e61040260018401610267565b9161040f60028501610267565b9261041c60038601610267565b94600560048201549101549260405196879660ff8460481c16946001600160401b0360ff8660401c169516938961034d565b0390f35b9181601f8401121561000e578235916001600160401b03831161000e576020838186019501011161000e57565b60a435906001600160401b038216820361000e57565b60c435906001600160401b038216820361000e57565b503461000e5760c036600319011261000e576001600160401b0360243581811161000e576104dd903690600401610452565b60443583811161000e576104f5903690600401610452565b60649291923585811161000e57610510903690600401610452565b9160843596871161000e5761052c610540973690600401610452565b95909461053761047f565b97600435610e3c565b005b503461000e57602036600319011261000e5760206105616004356111d7565b6040516001600160a01b039091168152f35b90604060031983011261000e5760043591602435906001600160401b03821161000e576105a291600401610452565b9091565b9060206105b792818152019061030d565b90565b503461000e5761044e6105d56105cf36610573565b9161119b565b60405191829160208352602083019061030d565b503461000e576105f836610573565b6040516331a9108f60e11b8152600481018490529091906001600160a01b036020826024817f000000000000000000000000000000000000000000000000000000000000000085165afa9182156106a6575b600092610676575b50339116036106645761054092611043565b6040516302655e8760e21b8152600490fd5b61069891925060203d811161069f575b6106908183610246565b810190610a57565b9038610652565b503d610686565b6106ae610a6c565b61064a565b503461000e57604036600319011261000e576001600160401b0360043581811161000e576106e5903690600401610452565b60249291923591821161000e5761044e926107076105d5933690600401610452565b92909161131c565b503461000e5761071e36610573565b6040516331a9108f60e11b8152600481018490529091906001600160a01b036020826024817f000000000000000000000000000000000000000000000000000000000000000085165afa9182156107aa575b60009261078a575b50339116036106645761054092610fb0565b6107a391925060203d811161069f576106908183610246565b9038610778565b6107b2610a6c565b610770565b503461000e57600036600319011261000e576040517f00000000000000000000000000000000000000000000000000000000000000006001600160a01b03168152602090f35b6001600160a01b0381160361000e57565b604435906102a5826107fd565b503461000e5760e036600319011261000e576001600160401b0360243581811161000e5761084d903690600401610452565b61085561080e565b9060643584811161000e5761086e903690600401610452565b9060843586811161000e57610887903690600401610452565b92909160a43597881161000e576108a5610540983690600401610452565b9690956108b0610495565b98600435610a79565b503461000e57602036600319011261000e57600435600052600260205261044e6105d56040600020610267565b503461000e57604036600319011261000e576004356000526001602052604060002060243560005260205261044e6105d56040600020610267565b503461000e57606036600319011261000e576004356024356001600160401b03811161000e57610955903690600401610452565b60443591610991610967368484610c92565b60208151910120610982866000526000602052604060002090565b90600052602052604060002090565b60048101546109a49060481c60ff161590565b610a09578054336001600160a01b03909116036109f757837fda7e6a1b6730bbacf075fee24775a76704ee1ff76da61bd6b1aad82243764ac89460056109f29301556040519384938461117e565b0390a2005b604051637aafae9760e01b8152600490fd5b6040516314f1b51b60e31b8152600490fd5b503461000e57600036600319011261000e5760206040517f00000000000000000000000000000000000000000000000000000000000000008152f35b9081602091031261000e57516105b7816107fd565b506040513d6000823e3d90fd5b604080516331a9108f60e11b815260048101839052949c9b919a93999298909760209792956001600160a01b0389826024817f000000000000000000000000000000000000000000000000000000000000000085165afa918215610c5b575b600092610c3c575b5033911603610c2b57610af4368c8c610c92565b888151910120978c600052600081528960002090896000525288600020926004840197610b26895460ff9060481c1690565b610c1a577f213415f26d670758ea66f1e9d1a769ba1c10cd205288304664a1451caf8af8479d9e9f999397610bb68e988e986003610c159f9d96998f610c0b9e610bf29a610ba7610c069e610bd39b610b9e610bb096889060018060a01b03166bffffffffffffffffffffffff60a01b825416179055565b60018701610d1d565b60028401610d1d565b01610d1d565b825467ffffffffffffffff19166001600160401b03909116178255565b805469ff00000000000000000019166901000000000000000000179055565b6109828c6000526001602052604060002090565b610d1d565b5193849384610e13565b0390a2565b8a516361a21cbf60e11b8152600490fd5b88516302655e8760e21b8152600490fd5b610c549192508a3d8c1161069f576106908183610246565b9038610ae0565b610c63610a6c565b610ad8565b6020906001600160401b038111610c85575b601f01601f19160190565b610c8d6101ec565b610c7a565b929192610c9e82610c68565b91610cac6040519384610246565b82948184528183011161000e578281602093846000960137010152565b90601f8111610cd757505050565b600091825260208220906020601f850160051c83019410610d13575b601f0160051c01915b828110610d0857505050565b818155600101610cfc565b9092508290610cf3565b9092916001600160401b038111610de5575b610d4381610d3d84546101b2565b84610cc9565b6000601f8211600114610d7d5781929394600092610d72575b50508160011b916000199060031b1c1916179055565b013590503880610d5c565b601f19821694610d9284600052602060002090565b91805b878110610dcd575083600195969710610db3575b505050811b019055565b0135600019600384901b60f8161c19169055388080610da9565b90926020600181928686013581550194019101610d95565b610ded6101ec565b610d2f565b908060209392818452848401376000828201840152601f01601f1916010190565b91602091610e2c91959495604085526040850191610df2565b6001600160a01b03909416910152565b97929390959998949996919660409a8b516331a9108f60e11b81528a600482015260209060018060a01b038282602481847f0000000000000000000000000000000000000000000000000000000000000000165afa918215610f92575b600092610f73575b5033911603610f6257610eb5368b8b610c92565b818151910120908b600052600081528d60002091600052528b60002092600484019660ff885460481c1615610f515784610bb07f63a0646c92ed3f94d33d04c6b3f9555b11f42aa13194b0790179632cb91c929d9d9e9f999695610f479995610ba7610c159d9a966003966001610f2c9b01610d1d565b906001600160401b03166001600160401b0319825416179055565b5192839283610f9f565b8d516314f1b51b60e31b8152600490fd5b8c516302655e8760e21b8152600490fd5b610f8b919250833d851161069f576106908183610246565b9038610ea1565b610f9a610a6c565b610e99565b9160206105b7938181520191610df2565b9190610fbd368383610c92565b6020815191012083600052600060205260406000209060005260205260046040600020019182549260ff8460481c1615610a0957680100000000000000007fc94b16046d6f9988b7fce16e4e68e3e0f182fa5f4b72b4640d16ff67f6a658c09468ff00000000000000001916179055610c15604051928392602084526020840191610df2565b909291816000526020936002855260406000206001600160401b038311611171575b6110798361107383546101b2565b83610cc9565b600095601f84116001146110e35750827ffc456b67fe1a94943469ed3aad2eb03d64390834dd69c0800cba407300afc3109495966000916110d8575b508360011b906000198560031b1c19161790555b610c1560405192839283610f9f565b9050820135386110b5565b601f198416966110f883600052602060002090565b9181905b898210611159575050847ffc456b67fe1a94943469ed3aad2eb03d64390834dd69c0800cba407300afc3109697981061113f575b5050600183811b0190556110c9565b830135600019600386901b60f8161c191690553880611130565b806001849582949589013581550194019201906110fc565b6111796101ec565b611065565b93929160209161119691604087526040870191610df2565b930152565b91907f000000000000000000000000000000000000000000000000000000000000000083146111cd576105b7926118d3565b6105b79250611816565b7f00000000000000000000000000000000000000000000000000000000000000008114611280576040516331a9108f60e11b815260048101919091526001600160a01b03906020816024817f000000000000000000000000000000000000000000000000000000000000000086165afa60009181611260575b5061125c575050600090565b1690565b61127991925060203d811161069f576106908183610246565b9038611250565b50600090565b9060041161000e5790600490565b909291928360041161000e57831161000e57600401916003190190565b6001600160e01b031990358181169392600481106112ce57505050565b60040360031b82901b16169150565b919060408382031261000e578235926020810135906001600160401b03821161000e57019080601f8301121561000e578160206105b793359101610c92565b9291909161133d61132d8284611286565b6001600160e01b031992916112b1565b1691631674750f60e21b831461149f575050631d9dabef60e11b1461136e57604051631e8b844160e01b8152600490fd5b611377916114f8565b600090156113d957506113ae6113a16105b7926109826113cb956000526000602052604060002090565b546001600160a01b031690565b604080516001600160a01b03909216602083015290928391820190565b03601f198101835282610246565b90507f000000000000000000000000000000000000000000000000000000000000000082036114115750506113cb6105b760006113ae565b6040516331a9108f60e11b815260048101929092526020826024816001600160a01b037f0000000000000000000000000000000000000000000000000000000000000000165afa90918161147f575b5061147357506113cb6105b760006113ae565b6105b76113cb916113ae565b61149891925060203d811161069f576106908183610246565b9038611460565b6114c3939250816114bb926114b392611294565b8101906112dd565b9390506114f8565b6114e757506114d86113cb926105b79261192f565b604051928391602083016105a6565b6113cb926114d8916105b7936119ac565b919091600061150784836116ee565b819591156115d35761151a90828561175d565b819491156115d35761152d90838361175d565b819391156116455761154090828461175d565b92909485156115e5575090611555929161175d565b501561156d57604051632b4adbc160e01b8152600490fd5b6115836115919260008052602052604060002090565b600052602052604060002090565b907f00000000000000000000000000000000000000000000000000000000000000008092036115d3576115cc91600052602052604060002090565b9190600190565b604051632b4adbc160e01b8152600490fd5b969795939150506116059350611583915060008052602052604060002090565b907f00000000000000000000000000000000000000000000000000000000000000008092036115d35761164091600052602052604060002090565b918190565b5050505091926115836116619260008052602052604060002090565b7f00000000000000000000000000000000000000000000000000000000000000008091036115d357918190565b50634e487b7160e01b600052603260045260246000fd5b50634e487b7160e01b600052601160045260246000fd5b90600182018092116116ca57565b6102a56116a5565b60300190816030116116ca57565b60020190816002116116ca57565b811561175357803560f81c918260010180600111611746575b80931561173b57508260011161000e57821161000e57611731903690600019840190600101610c92565b6020815191012091565b939250505060009190565b61174e6116a5565b611707565b5050600090600090565b90808310156117dd578282013560f81c92600181018082116117d0575b6001858301018091116117c3575b8094156117b75750611799906116bc565b9083821161000e57831161000e576117319136918085039101610c92565b94935050505060009190565b6117cb6116a5565b611788565b6117d86116a5565b61177a565b506000929050565b60405190602082018281106001600160401b03821117611809575b60405260008252565b6118116101ec565b611800565b611821913691610c92565b602081519101207fa6d150790fe7cf0d111c04a5eb0a3e4a8c9d014f08117a3c43dd292d1ffd735c81146118a9577f756e76ac192cca5c228783d7592178f9b0baa98429a81b06e9a31711eb18867614611888576040516118818161022b565b6000815290565b60405161189481610203565b60058152640302e312e360dc1b602082015290565b506040516118b681610203565b600d81526c0f4d6c6dedce8caf0e8c2eae8d609b1b602082015290565b917f9c726763c8bface49bf143fdcbd5cb6bd85fa7c530f28d46fb3ad73b5155217091611901913691610c92565b602081519101201461191a57506040516118818161022b565b60005260026020526105b76040600020610267565b907f9c726763c8bface49bf143fdcbd5cb6bd85fa7c530f28d46fb3ad73b5155217090602081519101201461191a57506040516118818161022b565b6040519061197882610203565b600582526466616c736560d81b6020830152565b6040519061199982610203565b60048252637472756560e01b6020830152565b906109826119c4926000526000602052604060002090565b9060048201549060ff8260481c1615611b3d5760208151910120907f7ab016a6fd2ad7e0a984d3db6a967dc819e816e856d664326a4aba1f01893b178214611b2f577f8ec16b8b94a2d487b6a8cbe3ddc0dd49e35b2c643f1bd84e409518844fbdba7f8214611b21577fd4ddfefc0018ede487f1022a7b1543609ebee19b77e8eaa54c82b89ed82b64198214611b13577f6ea56835944ae7703d24e69e5b234a2bdbf58617964b3d550bd4ef5c31e95c888214611afe577f51ebaa56e8dcdfdd61ffb443015ffa4cbdad1fa025ed3773421f8636da6261428214611adf57507f1d380e49c93ff0f43ac70d2b0a33077fa9bd0437f282bf5ac0f38fecbb7dab5c14611ad257506105b76117e5565b60056105b7910154611d05565b60401c60ff16159150611af69050576105b761198c565b6105b761196b565b6105b792506001600160401b03915016611c30565b505060036105b79101610267565b505060026105b79101610267565b505060016105b79101610267565b5050506105b76117e5565b6001906000198114611b58570190565b611b606116a5565b0190565b60405190608082018281106001600160401b03821117611b90575b604052604282526060366020840137565b611b986101ec565b611b7f565b90611ba782610c68565b611bb46040519182610246565b8281528092611bc5601f1991610c68565b0190602036910137565b8015611bdd575b6000190190565b611be56116a5565b611bd6565b602090805115611bf8570190565b611b6061168e565b602190805160011015611bf8570190565b906020918051821015611c2357010190565b611c2b61168e565b010190565b6001600160401b0380821615611cd057600092839282815b16948515611c6357600a611c5c8592611b48565b9604611c48565b9092945092909284611c7482611b9d565b935b16908115611cc857611c888691611bcf565b91600a90611cb5611ca5611c9f85858506166116d2565b60ff1690565b60f81b6001600160f81b03191690565b851a611cc18588611c11565b5304611c76565b509193505050565b5050604051611cde81610203565b60018152600360fc1b602082015290565b908160011b91808304600214901517156116ca57565b90611d0e611b64565b6030611d1982611bea565b536078611d2582611c00565b5360005b60208110611d3657509150565b8084611db4921a600f90818160041c169160109182841015611dc6575b6f181899199a1a9b1b9c1cb0b131b232b360811b9384901a611d85611d7f611d7a88611cef565b6116e0565b89611c11565b531690811015611db9575b1a611dae611da8611da3611d7a85611cef565b6116bc565b85611c11565b53611b48565b611d29565b611dc161168e565b611d90565b611dce61168e565b611d5356fea26469706673582212201026700cd006857aacf188aac5fabca43ec0bf9c6e83cdb048376ecc3ad8761064736f6c634300081100330000000000000000000000000635513f179d50a207757e05759cbd106d7dfce88b02aafa31da84e3fbd05ade46ba2ebf995c69ca7b429b77b08bf5dc37dc49dd",
        "nonce": "0x31",
        "chainId": "0xaa36a7"
      },
      "additionalContracts": [],
      "isFixedGasLimit": false
    },
    {
      "hash": "0x8b6b991385878d175a68f5103ca03b80cd64d3ebfa762057bccded4ffd14ddb2",
      "transactionType": "CALL",
      "contractName": null,
      "contractAddress": "0x0635513f179d50a207757e05759cbd106d7dfce8",
      "function": "setResolver(bytes32,address)",
      "arguments": [
        "0x8b02aafa31da84e3fbd05ade46ba2ebf995c69ca7b429b77b08bf5dc37dc49dd",
        "0x0e4137CC01Ce2C15A7Dc3AEdE1313f568DCf8E49"
      ],
      "transaction": {
        "from": "0x7a30d670ebeb9620e35bc6034aee69c4fa5bc50b",
        "to": "0x0635513f179d50a207757e05759cbd106d7dfce8",
        "gas": "0xd6db",
        "value": "0x0",
        "input": "0x1896f70a8b02aafa31da84e3fbd05ade46ba2ebf995c69ca7b429b77b08bf5dc37dc49dd0000000000000000000000000e4137cc01ce2c15a7dc3aede1313f568dcf8e49",
        "nonce": "0x32",
        "chainId": "0xaa36a7"
      },
      "additionalContracts": [],
      "isFixedGasLimit": false
    },
    {
      "hash": "0x4c66ca18ed0c8502226735f239eb12e4f75553b79db4f2d4606e329b2b6c6044",
      "transactionType": "CALL",
      "contractName": null,
      "contractAddress": "0x0635513f179d50a207757e05759cbd106d7dfce8",
      "function": "setSubnodeRecord(bytes32,string,address,address,uint64,uint32,uint64)",
      "arguments": [
        "0x8b02aafa31da84e3fbd05ade46ba2ebf995c69ca7b429b77b08bf5dc37dc49dd",
        "istanbulhospital",
        "0xB9E00f1AffA881CE0BD39714F920E19A2fBAE9BF",
        "0x0e4137CC01Ce2C15A7Dc3AEdE1313f568DCf8E49",
        "0",
        "0",
        "1809246396"
      ],
      "transaction": {
        "from": "0x7a30d670ebeb9620e35bc6034aee69c4fa5bc50b",
        "to": "0x0635513f179d50a207757e05759cbd106d7dfce8",
        "gas": "0x43315",
        "value": "0x0",
        "input": "0x24c1af448b02aafa31da84e3fbd05ade46ba2ebf995c69ca7b429b77b08bf5dc37dc49dd00000000000000000000000000000000000000000000000000000000000000e0000000000000000000000000b9e00f1affa881ce0bd39714f920e19a2fbae9bf0000000000000000000000000e4137cc01ce2c15a7dc3aede1313f568dcf8e4900000000000000000000000000000000000000000000000000000000000000000000000000000000000000000000000000000000000000000000000000000000000000000000000000000000000000000000000000000000000000006bd6e8bc0000000000000000000000000000000000000000000000000000000000000010697374616e62756c686f73706974616c00000000000000000000000000000000",
        "nonce": "0x33",
        "chainId": "0xaa36a7"
      },
      "additionalContracts": [],
      "isFixedGasLimit": false
    },
    {
      "hash": "0x25f006a73da0b54679c858d1d0687de255c3e2545cf59e1cf2aa10305ec6b023",
      "transactionType": "CALL",
      "contractName": null,
      "contractAddress": "0x0635513f179d50a207757e05759cbd106d7dfce8",
      "function": "setSubnodeRecord(bytes32,string,address,address,uint64,uint32,uint64)",
      "arguments": [
        "0x8b02aafa31da84e3fbd05ade46ba2ebf995c69ca7b429b77b08bf5dc37dc49dd",
        "acmeinsurance",
        "0xB698BBc0cFabF285C3Bc59F1FCDeC0bC6Be056e7",
        "0x0e4137CC01Ce2C15A7Dc3AEdE1313f568DCf8E49",
        "0",
        "0",
        "1809246396"
      ],
      "transaction": {
        "from": "0x7a30d670ebeb9620e35bc6034aee69c4fa5bc50b",
        "to": "0x0635513f179d50a207757e05759cbd106d7dfce8",
        "gas": "0x3c131",
        "value": "0x0",
        "input": "0x24c1af448b02aafa31da84e3fbd05ade46ba2ebf995c69ca7b429b77b08bf5dc37dc49dd00000000000000000000000000000000000000000000000000000000000000e0000000000000000000000000b698bbc0cfabf285c3bc59f1fcdec0bc6be056e70000000000000000000000000e4137cc01ce2c15a7dc3aede1313f568dcf8e4900000000000000000000000000000000000000000000000000000000000000000000000000000000000000000000000000000000000000000000000000000000000000000000000000000000000000000000000000000000000000006bd6e8bc000000000000000000000000000000000000000000000000000000000000000d61636d65696e737572616e636500000000000000000000000000000000000000",
        "nonce": "0x34",
        "chainId": "0xaa36a7"
      },
      "additionalContracts": [],
      "isFixedGasLimit": false
    }
  ],
  "receipts": [
    {
      "status": "0x1",
      "cumulativeGasUsed": "0x1166122",
      "logs": [
        {
          "address": "0x57f1887a8bf19b14fc0df6fd9b2acc9af147ea85",
          "topics": [
            "0x17307eab39ab6107e8899845ad3d59bd9653f200f220920489ca2b5937696c31",
            "0x0000000000000000000000007a30d670ebeb9620e35bc6034aee69c4fa5bc50b",
            "0x0000000000000000000000000635513f179d50a207757e05759cbd106d7dfce8"
          ],
          "data": "0x0000000000000000000000000000000000000000000000000000000000000001",
          "blockHash": "0x3b5c62224602e3bc48998dfacb125b23c8c90188f824e46697964b3e4bfa9e08",
          "blockNumber": "0xa46658",
          "blockTimestamp": "0x69f5b560",
          "transactionHash": "0xeaf300d766c6070daab58be1ee2e34aa41c6a0cd5a12fa3703fa97436a58d298",
          "transactionIndex": "0x7a",
          "logIndex": "0x2a8",
          "removed": false
        }
      ],
      "logsBloom": "0x00000000000000000000000000000000000000000000000000000000100000000000000000000000000000000000000000000000000000000000000008000000000000000000000000000000000000000000000008000000100000000000000002000000000000000000000000000000000000000000000000000000000000000000000000000000000000000000000000000000000000000000000000000000000000000000000000044000000000000000000000000000000000000000000000000000000000000002000000000000000000000000000020000000000000000000200800000000000000000000000000000000000000000000000000002000",
      "type": "0x2",
      "transactionHash": "0xeaf300d766c6070daab58be1ee2e34aa41c6a0cd5a12fa3703fa97436a58d298",
      "transactionIndex": "0x7a",
      "blockHash": "0x3b5c62224602e3bc48998dfacb125b23c8c90188f824e46697964b3e4bfa9e08",
      "blockNumber": "0xa46658",
      "gasUsed": "0xb49f",
      "effectiveGasPrice": "0xf4257",
      "from": "0x7a30d670ebeb9620e35bc6034aee69c4fa5bc50b",
      "to": "0x57f1887a8bf19b14fc0df6fd9b2acc9af147ea85",
      "contractAddress": null
    },
    {
      "status": "0x1",
      "cumulativeGasUsed": "0xa65b3c",
      "logs": [
        {
          "address": "0x57f1887a8bf19b14fc0df6fd9b2acc9af147ea85",
          "topics": [
            "0xddf252ad1be2c89b69c2b068fc378daa952ba7f163c4a11628f55a4df523b3ef",
            "0x0000000000000000000000007a30d670ebeb9620e35bc6034aee69c4fa5bc50b",
            "0x0000000000000000000000000635513f179d50a207757e05759cbd106d7dfce8",
            "0x34670afb52e317bf10fd7d28b15a90beba6fb76157609660b8b3198105e1c2c7"
          ],
          "data": "0x",
          "blockHash": "0x9a881ae7b2969c17d7973b8367a4ceca54c6fe28e92fcc24d31e64cc14dc5f56",
          "blockNumber": "0xa46659",
          "blockTimestamp": "0x69f5b56c",
          "transactionHash": "0x9bf7371487a9c5d532a004ac20efa3084465815a4aa986b3ff873e379cab4a34",
          "transactionIndex": "0x3e",
          "logIndex": "0xfc",
          "removed": false
        },
        {
          "address": "0x00000000000c2e074ec69a0dfb2997ba6c7d2e1e",
          "topics": [
            "0xce0457fe73731f824cc272376169235128c118b49d344817417c6d108d155e82",
            "0x93cdeb708b7545dc668eb9280176169d1c33cfd8ed6f04690a0bcc88a93fc4ae",
            "0x34670afb52e317bf10fd7d28b15a90beba6fb76157609660b8b3198105e1c2c7"
          ],
          "data": "0x0000000000000000000000000635513f179d50a207757e05759cbd106d7dfce8",
          "blockHash": "0x9a881ae7b2969c17d7973b8367a4ceca54c6fe28e92fcc24d31e64cc14dc5f56",
          "blockNumber": "0xa46659",
          "blockTimestamp": "0x69f5b56c",
          "transactionHash": "0x9bf7371487a9c5d532a004ac20efa3084465815a4aa986b3ff873e379cab4a34",
          "transactionIndex": "0x3e",
          "logIndex": "0xfd",
          "removed": false
        },
        {
          "address": "0x0635513f179d50a207757e05759cbd106d7dfce8",
          "topics": [
            "0xc3d58168c5ae7397731d063d5bbf3d657854427343f4c083240f7aacaa2d0f62",
            "0x0000000000000000000000007a30d670ebeb9620e35bc6034aee69c4fa5bc50b",
            "0x0000000000000000000000000000000000000000000000000000000000000000",
            "0x0000000000000000000000007a30d670ebeb9620e35bc6034aee69c4fa5bc50b"
          ],
          "data": "0x8b02aafa31da84e3fbd05ade46ba2ebf995c69ca7b429b77b08bf5dc37dc49dd0000000000000000000000000000000000000000000000000000000000000001",
          "blockHash": "0x9a881ae7b2969c17d7973b8367a4ceca54c6fe28e92fcc24d31e64cc14dc5f56",
          "blockNumber": "0xa46659",
          "blockTimestamp": "0x69f5b56c",
          "transactionHash": "0x9bf7371487a9c5d532a004ac20efa3084465815a4aa986b3ff873e379cab4a34",
          "transactionIndex": "0x3e",
          "logIndex": "0xfe",
          "removed": false
        },
        {
          "address": "0x0635513f179d50a207757e05759cbd106d7dfce8",
          "topics": [
            "0x8ce7013e8abebc55c3890a68f5a27c67c3f7efa64e584de5fb22363c606fd340",
            "0x8b02aafa31da84e3fbd05ade46ba2ebf995c69ca7b429b77b08bf5dc37dc49dd"
          ],
          "data": "0x00000000000000000000000000000000000000000000000000000000000000800000000000000000000000007a30d670ebeb9620e35bc6034aee69c4fa5bc50b0000000000000000000000000000000000000000000000000000000000030001000000000000000000000000000000000000000000000000000000006c4d891400000000000000000000000000000000000000000000000000000000000000130d7a6b636f6e7465787461757468036574680000000000000000000000000000",
          "blockHash": "0x9a881ae7b2969c17d7973b8367a4ceca54c6fe28e92fcc24d31e64cc14dc5f56",
          "blockNumber": "0xa46659",
          "blockTimestamp": "0x69f5b56c",
          "transactionHash": "0x9bf7371487a9c5d532a004ac20efa3084465815a4aa986b3ff873e379cab4a34",
          "transactionIndex": "0x3e",
          "logIndex": "0xff",
          "removed": false
        }
      ],
      "logsBloom": "0x00000000000000400000000000140000000000000000000000000000100004000000000000000000000000000000000000000000000010000000000008002000000000000000000000000008000000000000000008000000100000000000000000000000030000000000000004000800000000200000000000004010400000000000010000000000000000000000000004000000000000000000000000800000000000000000040000844000000000000000000000000000000000040000000000000002000000000002000000004000000000000008000020000000000020000000000800000000000000000100000000000000004000000000080000002000",
      "type": "0x2",
      "transactionHash": "0x9bf7371487a9c5d532a004ac20efa3084465815a4aa986b3ff873e379cab4a34",
      "transactionIndex": "0x3e",
      "blockHash": "0x9a881ae7b2969c17d7973b8367a4ceca54c6fe28e92fcc24d31e64cc14dc5f56",
      "blockNumber": "0xa46659",
      "gasUsed": "0x1de86",
      "effectiveGasPrice": "0xf4258",
      "from": "0x7a30d670ebeb9620e35bc6034aee69c4fa5bc50b",
      "to": "0x0635513f179d50a207757e05759cbd106d7dfce8",
      "contractAddress": null
    },
    {
      "status": "0x1",
      "cumulativeGasUsed": "0xac52a9",
      "logs": [],
      "logsBloom": "0x00000000000000000000000000000000000000000000000000000000000000000000000000000000000000000000000000000000000000000000000000000000000000000000000000000000000000000000000000000000000000000000000000000000000000000000000000000000000000000000000000000000000000000000000000000000000000000000000000000000000000000000000000000000000000000000000000000000000000000000000000000000000000000000000000000000000000000000000000000000000000000000000000000000000000000000000000000000000000000000000000000000000000000000000000000000",
      "type": "0x2",
      "transactionHash": "0xe7b1a56a348469b4e08006911f985bf49d1b849f4a6150296d5818c9d9aac700",
      "transactionIndex": "0x3e",
      "blockHash": "0xe587a5571c63d7979c97c1f82bf72517f75f0b4ae44506264a9c8b6526cccc70",
      "blockNumber": "0xa4665a",
      "gasUsed": "0x1a2246",
      "effectiveGasPrice": "0xf4258",
      "from": "0x7a30d670ebeb9620e35bc6034aee69c4fa5bc50b",
      "to": null,
      "contractAddress": "0x0e4137cc01ce2c15a7dc3aede1313f568dcf8e49"
    },
    {
      "status": "0x1",
      "cumulativeGasUsed": "0xccfbcf",
      "logs": [
        {
          "address": "0x00000000000c2e074ec69a0dfb2997ba6c7d2e1e",
          "topics": [
            "0x335721b01866dc23fbee8b6b2c7b1e14d6f05c28cd35a2c934239f94095602a0",
            "0x8b02aafa31da84e3fbd05ade46ba2ebf995c69ca7b429b77b08bf5dc37dc49dd"
          ],
          "data": "0x0000000000000000000000000e4137cc01ce2c15a7dc3aede1313f568dcf8e49",
          "blockHash": "0xfa9be0cfec6f96eb11f2b25ed5ffebb6e1e9085312f13064dcff240cc8e4b8e8",
          "blockNumber": "0xa4665b",
          "blockTimestamp": "0x69f5b584",
          "transactionHash": "0x8b6b991385878d175a68f5103ca03b80cd64d3ebfa762057bccded4ffd14ddb2",
          "transactionIndex": "0x5b",
          "logIndex": "0x19a",
          "removed": false
        }
      ],
      "logsBloom": "0x00000000000000000000000000000000000000000000000000000000000000000000000000000000000000000000000000000000000000000000000000020000000000000000000040000000000000000000000000000000000000000000000000000000000000000000000000000000000000000000000000004000400000000000010000000000000000000000000000000000000000000000000000000000000000000000040000000000000000000004000000000000000000000000000000000000000000000000000000000000000000000000000000000000000000000000000000000000000000000100000000000000004000000000000000000000",
      "type": "0x2",
      "transactionHash": "0x8b6b991385878d175a68f5103ca03b80cd64d3ebfa762057bccded4ffd14ddb2",
      "transactionIndex": "0x5b",
      "blockHash": "0xfa9be0cfec6f96eb11f2b25ed5ffebb6e1e9085312f13064dcff240cc8e4b8e8",
      "blockNumber": "0xa4665b",
      "gasUsed": "0x92e9",
      "effectiveGasPrice": "0xf4258",
      "from": "0x7a30d670ebeb9620e35bc6034aee69c4fa5bc50b",
      "to": "0x0635513f179d50a207757e05759cbd106d7dfce8",
      "contractAddress": null
    },
    {
      "status": "0x1",
      "cumulativeGasUsed": "0x6e9609",
      "logs": [
        {
          "address": "0x00000000000c2e074ec69a0dfb2997ba6c7d2e1e",
          "topics": [
            "0xce0457fe73731f824cc272376169235128c118b49d344817417c6d108d155e82",
            "0x8b02aafa31da84e3fbd05ade46ba2ebf995c69ca7b429b77b08bf5dc37dc49dd",
            "0x7047c755a34ba0350fc33b26231d8af1f43be7991ab3e994b47e6d7a2efe7f1a"
          ],
          "data": "0x0000000000000000000000000635513f179d50a207757e05759cbd106d7dfce8",
          "blockHash": "0x34db7cf49aefb1b70eb6eb83e7ee0cff3950f79556c70093ac275f8e8a812698",
          "blockNumber": "0xa4665c",
          "blockTimestamp": "0x69f5b590",
          "transactionHash": "0x4c66ca18ed0c8502226735f239eb12e4f75553b79db4f2d4606e329b2b6c6044",
          "transactionIndex": "0x32",
          "logIndex": "0x12e",
          "removed": false
        },
        {
          "address": "0x00000000000c2e074ec69a0dfb2997ba6c7d2e1e",
          "topics": [
            "0x335721b01866dc23fbee8b6b2c7b1e14d6f05c28cd35a2c934239f94095602a0",
            "0xe567c8a690864cabe3b1c8c2d97ab50fc0f135650fdfb978beeffa6dd226a7fd"
          ],
          "data": "0x0000000000000000000000000e4137cc01ce2c15a7dc3aede1313f568dcf8e49",
          "blockHash": "0x34db7cf49aefb1b70eb6eb83e7ee0cff3950f79556c70093ac275f8e8a812698",
          "blockNumber": "0xa4665c",
          "blockTimestamp": "0x69f5b590",
          "transactionHash": "0x4c66ca18ed0c8502226735f239eb12e4f75553b79db4f2d4606e329b2b6c6044",
          "transactionIndex": "0x32",
          "logIndex": "0x12f",
          "removed": false
        },
        {
          "address": "0x0635513f179d50a207757e05759cbd106d7dfce8",
          "topics": [
            "0xc3d58168c5ae7397731d063d5bbf3d657854427343f4c083240f7aacaa2d0f62",
            "0x0000000000000000000000007a30d670ebeb9620e35bc6034aee69c4fa5bc50b",
            "0x0000000000000000000000000000000000000000000000000000000000000000",
            "0x000000000000000000000000b9e00f1affa881ce0bd39714f920e19a2fbae9bf"
          ],
          "data": "0xe567c8a690864cabe3b1c8c2d97ab50fc0f135650fdfb978beeffa6dd226a7fd0000000000000000000000000000000000000000000000000000000000000001",
          "blockHash": "0x34db7cf49aefb1b70eb6eb83e7ee0cff3950f79556c70093ac275f8e8a812698",
          "blockNumber": "0xa4665c",
          "blockTimestamp": "0x69f5b590",
          "transactionHash": "0x4c66ca18ed0c8502226735f239eb12e4f75553b79db4f2d4606e329b2b6c6044",
          "transactionIndex": "0x32",
          "logIndex": "0x130",
          "removed": false
        },
        {
          "address": "0x0635513f179d50a207757e05759cbd106d7dfce8",
          "topics": [
            "0x8ce7013e8abebc55c3890a68f5a27c67c3f7efa64e584de5fb22363c606fd340",
            "0xe567c8a690864cabe3b1c8c2d97ab50fc0f135650fdfb978beeffa6dd226a7fd"
          ],
          "data": "0x0000000000000000000000000000000000000000000000000000000000000080000000000000000000000000b9e00f1affa881ce0bd39714f920e19a2fbae9bf0000000000000000000000000000000000000000000000000000000000000000000000000000000000000000000000000000000000000000000000006bd6e8bc000000000000000000000000000000000000000000000000000000000000002410697374616e62756c686f73706974616c0d7a6b636f6e7465787461757468036574680000000000000000000000000000000000000000000000000000000000",
          "blockHash": "0x34db7cf49aefb1b70eb6eb83e7ee0cff3950f79556c70093ac275f8e8a812698",
          "blockNumber": "0xa4665c",
          "blockTimestamp": "0x69f5b590",
          "transactionHash": "0x4c66ca18ed0c8502226735f239eb12e4f75553b79db4f2d4606e329b2b6c6044",
          "transactionIndex": "0x32",
          "logIndex": "0x131",
          "removed": false
        }
      ],
      "logsBloom": "0x00000000000000400021000000000000001000000000000000000000000004000000000000000000001000000000000000000000000010000000000008022000000000000000000040000000000000000000000008000000000000000000000000000000020000000000000004000800000000200000000000004000400000000000010000001000000000000000000000000002000000000000000000800000000000000000040000040000000000000004000000000000000000040000000000008000000000000000000000004000000000000008000000000000000020000000000800201000000000000100000000000000004000000000080000000000",
      "type": "0x2",
      "transactionHash": "0x4c66ca18ed0c8502226735f239eb12e4f75553b79db4f2d4606e329b2b6c6044",
      "transactionIndex": "0x32",
      "blockHash": "0x34db7cf49aefb1b70eb6eb83e7ee0cff3950f79556c70093ac275f8e8a812698",
      "blockNumber": "0xa4665c",
      "gasUsed": "0x2df1a",
      "effectiveGasPrice": "0xf4258",
      "from": "0x7a30d670ebeb9620e35bc6034aee69c4fa5bc50b",
      "to": "0x0635513f179d50a207757e05759cbd106d7dfce8",
      "contractAddress": null
    },
    {
      "status": "0x1",
      "cumulativeGasUsed": "0x549860",
      "logs": [
        {
          "address": "0x00000000000c2e074ec69a0dfb2997ba6c7d2e1e",
          "topics": [
            "0xce0457fe73731f824cc272376169235128c118b49d344817417c6d108d155e82",
            "0x8b02aafa31da84e3fbd05ade46ba2ebf995c69ca7b429b77b08bf5dc37dc49dd",
            "0x577ac456c954045db6f0aa601d9b9422b67920a0415f40f1c6c3ed15c71df1c1"
          ],
          "data": "0x0000000000000000000000000635513f179d50a207757e05759cbd106d7dfce8",
          "blockHash": "0xda7a502c3ae3fdbeae716d6a1f6a0eec1b4d99acf7150e809ce729312ebad96b",
          "blockNumber": "0xa4665d",
          "blockTimestamp": "0x69f5b59c",
          "transactionHash": "0x25f006a73da0b54679c858d1d0687de255c3e2545cf59e1cf2aa10305ec6b023",
          "transactionIndex": "0x31",
          "logIndex": "0x85",
          "removed": false
        },
        {
          "address": "0x00000000000c2e074ec69a0dfb2997ba6c7d2e1e",
          "topics": [
            "0x335721b01866dc23fbee8b6b2c7b1e14d6f05c28cd35a2c934239f94095602a0",
            "0x56bad11ea092e3cd1e4288c7e123d913a98fe3760b96df5e4d4fb32684c44bcf"
          ],
          "data": "0x0000000000000000000000000e4137cc01ce2c15a7dc3aede1313f568dcf8e49",
          "blockHash": "0xda7a502c3ae3fdbeae716d6a1f6a0eec1b4d99acf7150e809ce729312ebad96b",
          "blockNumber": "0xa4665d",
          "blockTimestamp": "0x69f5b59c",
          "transactionHash": "0x25f006a73da0b54679c858d1d0687de255c3e2545cf59e1cf2aa10305ec6b023",
          "transactionIndex": "0x31",
          "logIndex": "0x86",
          "removed": false
        },
        {
          "address": "0x0635513f179d50a207757e05759cbd106d7dfce8",
          "topics": [
            "0xc3d58168c5ae7397731d063d5bbf3d657854427343f4c083240f7aacaa2d0f62",
            "0x0000000000000000000000007a30d670ebeb9620e35bc6034aee69c4fa5bc50b",
            "0x0000000000000000000000000000000000000000000000000000000000000000",
            "0x000000000000000000000000b698bbc0cfabf285c3bc59f1fcdec0bc6be056e7"
          ],
          "data": "0x56bad11ea092e3cd1e4288c7e123d913a98fe3760b96df5e4d4fb32684c44bcf0000000000000000000000000000000000000000000000000000000000000001",
          "blockHash": "0xda7a502c3ae3fdbeae716d6a1f6a0eec1b4d99acf7150e809ce729312ebad96b",
          "blockNumber": "0xa4665d",
          "blockTimestamp": "0x69f5b59c",
          "transactionHash": "0x25f006a73da0b54679c858d1d0687de255c3e2545cf59e1cf2aa10305ec6b023",
          "transactionIndex": "0x31",
          "logIndex": "0x87",
          "removed": false
        },
        {
          "address": "0x0635513f179d50a207757e05759cbd106d7dfce8",
          "topics": [
            "0x8ce7013e8abebc55c3890a68f5a27c67c3f7efa64e584de5fb22363c606fd340",
            "0x56bad11ea092e3cd1e4288c7e123d913a98fe3760b96df5e4d4fb32684c44bcf"
          ],
          "data": "0x0000000000000000000000000000000000000000000000000000000000000080000000000000000000000000b698bbc0cfabf285c3bc59f1fcdec0bc6be056e70000000000000000000000000000000000000000000000000000000000000000000000000000000000000000000000000000000000000000000000006bd6e8bc00000000000000000000000000000000000000000000000000000000000000210d61636d65696e737572616e63650d7a6b636f6e7465787461757468036574680000000000000000000000000000000000000000000000000000000000000000",
          "blockHash": "0xda7a502c3ae3fdbeae716d6a1f6a0eec1b4d99acf7150e809ce729312ebad96b",
          "blockNumber": "0xa4665d",
          "blockTimestamp": "0x69f5b59c",
          "transactionHash": "0x25f006a73da0b54679c858d1d0687de255c3e2545cf59e1cf2aa10305ec6b023",
          "transactionIndex": "0x31",
          "logIndex": "0x88",
          "removed": false
        }
      ],
      "logsBloom": "0x00000000000000400000000000000000000000000000000000000000000004000000000000000000000010000000000000000000000010000000000008022000000000000000000040000000000000000001000009000000000080000000010000000000021000000000000004000800000000200000000000004000400000000000010000000000000000000000000000000000000000008000000000800000000000000000040000040000000000000004000000000000200000040000000000000000000000000000000000004000000000000008000000000000000020000000000800004000000000000100000000000000004000000000080000000000",
      "type": "0x2",
      "transactionHash": "0x25f006a73da0b54679c858d1d0687de255c3e2545cf59e1cf2aa10305ec6b023",
      "transactionIndex": "0x31",
      "blockHash": "0xda7a502c3ae3fdbeae716d6a1f6a0eec1b4d99acf7150e809ce729312ebad96b",
      "blockNumber": "0xa4665d",
      "gasUsed": "0x2913a",
      "effectiveGasPrice": "0xf4258",
      "from": "0x7a30d670ebeb9620e35bc6034aee69c4fa5bc50b",
      "to": "0x0635513f179d50a207757e05759cbd106d7dfce8",
      "contractAddress": null
    }
  ],
  "libraries": [],
  "pending": [],
  "returns": {},
  "timestamp": 1777710493212,
  "chain": 11155111,
  "commit": "8cb8c75"
}