{
  "transactions": [
    {
      "hash": "0xc8ef8498d9672fc6c8ee6b6850249d20eb30ec4e7d4cbfcc7fc6062e888be525",
      "transactionType": "CREATE",
      "contractName": "ZkcaResolver",
      "contractAddress": "0xe5722c5163e673a9026742f35d6145116a38bc8e",
      "function": null,
      "arguments": [
        "0x0635513f179D50A207757E05759CbD106d7dFcE8",
        "0x8b02aafa31da84e3fbd05ade46ba2ebf995c69ca7b429b77b08bf5dc37dc49dd"
      ],
      "transaction": {
        "from": "0x7a30d670ebeb9620e35bc6034aee69c4fa5bc50b",
        "gas": "0x2231ff",
        "value": "0x0",
        "input": "0x60c0346100d757601f611f3338819003918201601f19168301916001600160401b038311848410176100dc5780849260409485528339810103126100d7578051906001600160a01b03821682036100d757602001519060805260a052604051611e4090816100f3823960805181818161061f01528181610745015281816107ce01528181610aad01528181610e6f0152818161122f0152611441015260a051818181610a340152818161119f015281816111e4015281816113e8015281816114d5015281816115d60152818161164a01526116a50152f35b600080fd5b634e487b7160e01b600052604160045260246000fdfe60806040526004361015610013575b600080fd5b60003560e01c806301ffc9a71461012b57806307be6f9914610122578063158d0595146101195780633b3b57de1461011057806359d1d43c1461010757806378ce0998146100fe5780639061b923146100f55780639f8e3e0d146100ec578063a8e5fbc0146100e3578063baa9e417146100da578063cd544a7b146100d1578063d0aea43a146100c8578063d9ca69e4146100bf5763f3068a00146100b757600080fd5b61000e610a1b565b5061000e610921565b5061000e6108e6565b5061000e6108b9565b5061000e61081b565b5061000e6107b7565b5061000e61070f565b5061000e6106b3565b5061000e6105e9565b5061000e6105ba565b5061000e610542565b5061000e6104ab565b5061000e6103b9565b503461000e57602036600319011261000e5760043563ffffffff60e01b811680910361000e576020906301ffc9a760e01b81149081156101a1575b8115610190575b811561017f575b506040519015158152f35b631d9dabef60e11b14905038610174565b631674750f60e21b8114915061016d565b639061b92360e01b81149150610166565b90600182811c921680156101e2575b60208310146101cc57565b634e487b7160e01b600052602260045260246000fd5b91607f16916101c1565b50634e487b7160e01b600052604160045260246000fd5b604081019081106001600160401b0382111761021e57604052565b6102266101ec565b604052565b602081019081106001600160401b0382111761021e57604052565b90601f801991011681019081106001600160401b0382111761021e57604052565b906040519182600082549261027b846101b2565b9081845260019485811690816000146102ea57506001146102a7575b50506102a592500383610246565b565b9093915060005260209081600020936000915b8183106102d25750506102a593508201013880610297565b855488840185015294850194879450918301916102ba565b9150506102a594506020925060ff191682840152151560051b8201013880610297565b919082519283825260005b848110610339575050826000602080949584010152601f8019910116010190565b602081830181015184830182015201610318565b949897969361039260e097946103846001600160401b03956103a09560018060a01b03168a526101008060208c01528a019061030d565b9088820360408a015261030d565b90868203606088015261030d565b97166080840152151560a0830152151560c08201520152565b503461000e57604036600319011261000e5760043560005260006020526040600020602435600052602052604060002060018060a01b0381541661044e61040260018401610267565b9161040f60028501610267565b9261041c60038601610267565b94600560048201549101549260405196879660ff8460481c16946001600160401b0360ff8660401c169516938961034d565b0390f35b9181601f8401121561000e578235916001600160401b03831161000e576020838186019501011161000e57565b60a435906001600160401b038216820361000e57565b60c435906001600160401b038216820361000e57565b503461000e5760c036600319011261000e576001600160401b0360243581811161000e576104dd903690600401610452565b60443583811161000e576104f5903690600401610452565b60649291923585811161000e57610510903690600401610452565b9160843596871161000e5761052c610540973690600401610452565b95909461053761047f565b97600435610e3c565b005b503461000e57602036600319011261000e5760206105616004356111e2565b6040516001600160a01b039091168152f35b90604060031983011261000e5760043591602435906001600160401b03821161000e576105a291600401610452565b9091565b9060206105b792818152019061030d565b90565b503461000e5761044e6105d56105cf36610573565b9161119b565b60405191829160208352602083019061030d565b503461000e576105f836610573565b6040516331a9108f60e11b8152600481018490529091906001600160a01b036020826024817f000000000000000000000000000000000000000000000000000000000000000085165afa9182156106a6575b600092610676575b50339116036106645761054092611043565b6040516302655e8760e21b8152600490fd5b61069891925060203d811161069f575b6106908183610246565b810190610a57565b9038610652565b503d610686565b6106ae610a6c565b61064a565b503461000e57604036600319011261000e576001600160401b0360043581811161000e576106e5903690600401610452565b60249291923591821161000e5761044e926107076105d5933690600401610452565b929091611327565b503461000e5761071e36610573565b6040516331a9108f60e11b8152600481018490529091906001600160a01b036020826024817f000000000000000000000000000000000000000000000000000000000000000085165afa9182156107aa575b60009261078a575b50339116036106645761054092610fb0565b6107a391925060203d811161069f576106908183610246565b9038610778565b6107b2610a6c565b610770565b503461000e57600036600319011261000e576040517f00000000000000000000000000000000000000000000000000000000000000006001600160a01b03168152602090f35b6001600160a01b0381160361000e57565b604435906102a5826107fd565b503461000e5760e036600319011261000e576001600160401b0360243581811161000e5761084d903690600401610452565b61085561080e565b9060643584811161000e5761086e903690600401610452565b9060843586811161000e57610887903690600401610452565b92909160a43597881161000e576108a5610540983690600401610452565b9690956108b0610495565b98600435610a79565b503461000e57602036600319011261000e57600435600052600260205261044e6105d56040600020610267565b503461000e57604036600319011261000e576004356000526001602052604060002060243560005260205261044e6105d56040600020610267565b503461000e57606036600319011261000e576004356024356001600160401b03811161000e57610955903690600401610452565b60443591610991610967368484610c92565b60208151910120610982866000526000602052604060002090565b90600052602052604060002090565b60048101546109a49060481c60ff161590565b610a09578054336001600160a01b03909116036109f757837fda7e6a1b6730bbacf075fee24775a76704ee1ff76da61bd6b1aad82243764ac89460056109f29301556040519384938461117e565b0390a2005b604051637aafae9760e01b8152600490fd5b6040516314f1b51b60e31b8152600490fd5b503461000e57600036600319011261000e5760206040517f00000000000000000000000000000000000000000000000000000000000000008152f35b9081602091031261000e57516105b7816107fd565b506040513d6000823e3d90fd5b604080516331a9108f60e11b815260048101839052949c9b919a93999298909760209792956001600160a01b0389826024817f000000000000000000000000000000000000000000000000000000000000000085165afa918215610c5b575b600092610c3c575b5033911603610c2b57610af4368c8c610c92565b888151910120978c600052600081528960002090896000525288600020926004840197610b26895460ff9060481c1690565b610c1a577f213415f26d670758ea66f1e9d1a769ba1c10cd205288304664a1451caf8af8479d9e9f999397610bb68e988e986003610c159f9d96998f610c0b9e610bf29a610ba7610c069e610bd39b610b9e610bb096889060018060a01b03166bffffffffffffffffffffffff60a01b825416179055565b60018701610d1d565b60028401610d1d565b01610d1d565b825467ffffffffffffffff19166001600160401b03909116178255565b805469ff00000000000000000019166901000000000000000000179055565b6109828c6000526001602052604060002090565b610d1d565b5193849384610e13565b0390a2565b8a516361a21cbf60e11b8152600490fd5b88516302655e8760e21b8152600490fd5b610c549192508a3d8c1161069f576106908183610246565b9038610ae0565b610c63610a6c565b610ad8565b6020906001600160401b038111610c85575b601f01601f19160190565b610c8d6101ec565b610c7a565b929192610c9e82610c68565b91610cac6040519384610246565b82948184528183011161000e578281602093846000960137010152565b90601f8111610cd757505050565b600091825260208220906020601f850160051c83019410610d13575b601f0160051c01915b828110610d0857505050565b818155600101610cfc565b9092508290610cf3565b9092916001600160401b038111610de5575b610d4381610d3d84546101b2565b84610cc9565b6000601f8211600114610d7d5781929394600092610d72575b50508160011b916000199060031b1c1916179055565b013590503880610d5c565b601f19821694610d9284600052602060002090565b91805b878110610dcd575083600195969710610db3575b505050811b019055565b0135600019600384901b60f8161c19169055388080610da9565b90926020600181928686013581550194019101610d95565b610ded6101ec565b610d2f565b908060209392818452848401376000828201840152601f01601f1916010190565b91602091610e2c91959495604085526040850191610df2565b6001600160a01b03909416910152565b97929390959998949996919660409a8b516331a9108f60e11b81528a600482015260209060018060a01b038282602481847f0000000000000000000000000000000000000000000000000000000000000000165afa918215610f92575b600092610f73575b5033911603610f6257610eb5368b8b610c92565b818151910120908b600052600081528d60002091600052528b60002092600484019660ff885460481c1615610f515784610bb07f63a0646c92ed3f94d33d04c6b3f9555b11f42aa13194b0790179632cb91c929d9d9e9f999695610f479995610ba7610c159d9a966003966001610f2c9b01610d1d565b906001600160401b03166001600160401b0319825416179055565b5192839283610f9f565b8d516314f1b51b60e31b8152600490fd5b8c516302655e8760e21b8152600490fd5b610f8b919250833d851161069f576106908183610246565b9038610ea1565b610f9a610a6c565b610e99565b9160206105b7938181520191610df2565b9190610fbd368383610c92565b6020815191012083600052600060205260406000209060005260205260046040600020019182549260ff8460481c1615610a0957680100000000000000007fc94b16046d6f9988b7fce16e4e68e3e0f182fa5f4b72b4640d16ff67f6a658c09468ff00000000000000001916179055610c15604051928392602084526020840191610df2565b909291816000526020936002855260406000206001600160401b038311611171575b6110798361107383546101b2565b83610cc9565b600095601f84116001146110e35750827ffc456b67fe1a94943469ed3aad2eb03d64390834dd69c0800cba407300afc3109495966000916110d8575b508360011b906000198560031b1c19161790555b610c1560405192839283610f9f565b9050820135386110b5565b601f198416966110f883600052602060002090565b9181905b898210611159575050847ffc456b67fe1a94943469ed3aad2eb03d64390834dd69c0800cba407300afc3109697981061113f575b5050600183811b0190556110c9565b830135600019600386901b60f8161c191690553880611130565b806001849582949589013581550194019201906110fc565b6111796101ec565b611065565b93929160209161119691604087526040870191610df2565b930152565b91907f000000000000000000000000000000000000000000000000000000000000000083146111cd576105b79261190a565b6105b792506111dd913691610c92565b611858565b7f0000000000000000000000000000000000000000000000000000000000000000811461128b576040516331a9108f60e11b815260048101919091526001600160a01b03906020816024817f000000000000000000000000000000000000000000000000000000000000000086165afa6000918161126b575b50611267575050600090565b1690565b61128491925060203d811161069f576106908183610246565b903861125b565b50600090565b9060041161000e5790600490565b909291928360041161000e57831161000e57600401916003190190565b6001600160e01b031990358181169392600481106112d957505050565b60040360031b82901b16169150565b919060408382031261000e578235926020810135906001600160401b03821161000e57019080601f8301121561000e578160206105b793359101610c92565b929190916113486113388284611291565b6001600160e01b031992916112bc565b1691631674750f60e21b83146114aa575050631d9dabef60e11b1461137957604051631e8b844160e01b8152600490fd5b6113829161153a565b600090156113e457506113b96113ac6105b7926109826113d6956000526000602052604060002090565b546001600160a01b031690565b604080516001600160a01b03909216602083015290928391820190565b03601f198101835282610246565b90507f0000000000000000000000000000000000000000000000000000000000000000820361141c5750506113d66105b760006113b9565b6040516331a9108f60e11b815260048101929092526020826024816001600160a01b037f0000000000000000000000000000000000000000000000000000000000000000165afa90918161148a575b5061147e57506113d66105b760006113b9565b6105b76113d6916113b9565b6114a391925060203d811161069f576106908183610246565b903861146b565b6114ce939250816114c6926114be9261129f565b8101906112e8565b93905061153a565b61152957507f000000000000000000000000000000000000000000000000000000000000000081146115195761150a6113d6926105b792611966565b604051928391602083016105a6565b506105b761150a6113d692611858565b6113d69261150a916105b7936119e3565b91909160006115498483611730565b819591156116155761155c90828561179f565b819491156116155761156f90838361179f565b819391156116875761158290828461179f565b9290948515611627575090611597929161179f565b50156115af57604051632b4adbc160e01b8152600490fd5b6115c56115d39260008052602052604060002090565b600052602052604060002090565b907f00000000000000000000000000000000000000000000000000000000000000008092036116155761160e91600052602052604060002090565b9190600190565b604051632b4adbc160e01b8152600490fd5b9697959391505061164793506115c5915060008052602052604060002090565b907f00000000000000000000000000000000000000000000000000000000000000008092036116155761168291600052602052604060002090565b918190565b5050505091926115c56116a39260008052602052604060002090565b7f000000000000000000000000000000000000000000000000000000000000000080910361161557918190565b50634e487b7160e01b600052603260045260246000fd5b50634e487b7160e01b600052601160045260246000fd5b906001820180921161170c57565b6102a56116e7565b603001908160301161170c57565b600201908160021161170c57565b811561179557803560f81c918260010180600111611788575b80931561177d57508260011161000e57821161000e57611773903690600019840190600101610c92565b6020815191012091565b939250505060009190565b6117906116e7565b611749565b5050600090600090565b908083101561181f578282013560f81c9260018101808211611812575b600185830101809111611805575b8094156117f957506117db906116fe565b9083821161000e57831161000e576117739136918085039101610c92565b94935050505060009190565b61180d6116e7565b6117ca565b61181a6116e7565b6117bc565b506000929050565b60405190602082018281106001600160401b0382111761184b575b60405260008252565b6118536101ec565b611842565b602081519101207fa6d150790fe7cf0d111c04a5eb0a3e4a8c9d014f08117a3c43dd292d1ffd735c81146118e0577f756e76ac192cca5c228783d7592178f9b0baa98429a81b06e9a31711eb188676146118bf576040516118b88161022b565b6000815290565b6040516118cb81610203565b60058152640302e312e360dc1b602082015290565b506040516118ed81610203565b600d81526c0f4d6c6dedce8caf0e8c2eae8d609b1b602082015290565b917f9c726763c8bface49bf143fdcbd5cb6bd85fa7c530f28d46fb3ad73b5155217091611938913691610c92565b602081519101201461195157506040516118b88161022b565b60005260026020526105b76040600020610267565b907f9c726763c8bface49bf143fdcbd5cb6bd85fa7c530f28d46fb3ad73b5155217090602081519101201461195157506040516118b88161022b565b604051906119af82610203565b600582526466616c736560d81b6020830152565b604051906119d082610203565b60048252637472756560e01b6020830152565b906109826119fb926000526000602052604060002090565b9060048201549060ff8260481c1615611b745760208151910120907f7ab016a6fd2ad7e0a984d3db6a967dc819e816e856d664326a4aba1f01893b178214611b66577f8ec16b8b94a2d487b6a8cbe3ddc0dd49e35b2c643f1bd84e409518844fbdba7f8214611b58577fd4ddfefc0018ede487f1022a7b1543609ebee19b77e8eaa54c82b89ed82b64198214611b4a577f6ea56835944ae7703d24e69e5b234a2bdbf58617964b3d550bd4ef5c31e95c888214611b35577f51ebaa56e8dcdfdd61ffb443015ffa4cbdad1fa025ed3773421f8636da6261428214611b1657507f1d380e49c93ff0f43ac70d2b0a33077fa9bd0437f282bf5ac0f38fecbb7dab5c14611b0957506105b7611827565b60056105b7910154611d3c565b60401c60ff16159150611b2d9050576105b76119c3565b6105b76119a2565b6105b792506001600160401b03915016611c67565b505060036105b79101610267565b505060026105b79101610267565b505060016105b79101610267565b5050506105b7611827565b6001906000198114611b8f570190565b611b976116e7565b0190565b60405190608082018281106001600160401b03821117611bc7575b604052604282526060366020840137565b611bcf6101ec565b611bb6565b90611bde82610c68565b611beb6040519182610246565b8281528092611bfc601f1991610c68565b0190602036910137565b8015611c14575b6000190190565b611c1c6116e7565b611c0d565b602090805115611c2f570190565b611b976116d0565b602190805160011015611c2f570190565b906020918051821015611c5a57010190565b611c626116d0565b010190565b6001600160401b0380821615611d0757600092839282815b16948515611c9a57600a611c938592611b7f565b9604611c7f565b9092945092909284611cab82611bd4565b935b16908115611cff57611cbf8691611c06565b91600a90611cec611cdc611cd68585850616611714565b60ff1690565b60f81b6001600160f81b03191690565b851a611cf88588611c48565b5304611cad565b509193505050565b5050604051611d1581610203565b60018152600360fc1b602082015290565b908160011b918083046002149015171561170c57565b90611d45611b9b565b6030611d5082611c21565b536078611d5c82611c37565b5360005b60208110611d6d57509150565b8084611deb921a600f90818160041c169160109182841015611dfd575b6f181899199a1a9b1b9c1cb0b131b232b360811b9384901a611dbc611db6611db188611d26565b611722565b89611c48565b531690811015611df0575b1a611de5611ddf611dda611db185611d26565b6116fe565b85611c48565b53611b7f565b611d60565b611df86116d0565b611dc7565b611e056116d0565b611d8a56fea2646970667358221220a9fc64622d0e22b6458d50f16c5b117ffd5566ba29155ddddf4ffe26369cd04964736f6c634300081100330000000000000000000000000635513f179d50a207757e05759cbd106d7dfce88b02aafa31da84e3fbd05ade46ba2ebf995c69ca7b429b77b08bf5dc37dc49dd",
        "nonce": "0x37",
        "chainId": "0xaa36a7"
      },
      "additionalContracts": [],
      "isFixedGasLimit": false
    },
    {
      "hash": "0x61acfa6f78330379bd892bdadd39ad9051d2fcd05ed89e08eca09f050db7bcc3",
      "transactionType": "CALL",
      "contractName": "NameWrapper",
      "contractAddress": "0x0635513f179d50a207757e05759cbd106d7dfce8",
      "function": "setResolver(bytes32,address)",
      "arguments": [
        "0x8b02aafa31da84e3fbd05ade46ba2ebf995c69ca7b429b77b08bf5dc37dc49dd",
        "0xE5722c5163E673a9026742f35D6145116A38bc8E"
      ],
      "transaction": {
        "from": "0x7a30d670ebeb9620e35bc6034aee69c4fa5bc50b",
        "to": "0x0635513f179d50a207757e05759cbd106d7dfce8",
        "gas": "0xd6db",
        "value": "0x0",
        "input": "0x1896f70a8b02aafa31da84e3fbd05ade46ba2ebf995c69ca7b429b77b08bf5dc37dc49dd000000000000000000000000e5722c5163e673a9026742f35d6145116a38bc8e",
        "nonce": "0x38",
        "chainId": "0xaa36a7"
      },
      "additionalContracts": [],
      "isFixedGasLimit": false
    },
    {
      "hash": "0xa529def7381d7ce9a91bd67fcf295a0abd631b0974cb0c9dcca44b49cc5d8894",
      "transactionType": "CALL",
      "contractName": "NameWrapper",
      "contractAddress": "0x0635513f179d50a207757e05759cbd106d7dfce8",
      "function": "setSubnodeRecord(bytes32,string,address,address,uint64,uint32,uint64)",
      "arguments": [
        "0x8b02aafa31da84e3fbd05ade46ba2ebf995c69ca7b429b77b08bf5dc37dc49dd",
        "istanbulhospital",
        "0xB9E00f1AffA881CE0BD39714F920E19A2fBAE9BF",
        "0xE5722c5163E673a9026742f35D6145116A38bc8E",
        "0",
        "0",
        "1809246792"
      ],
      "transaction": {
        "from": "0x7a30d670ebeb9620e35bc6034aee69c4fa5bc50b",
        "to": "0x0635513f179d50a207757e05759cbd106d7dfce8",
        "gas": "0x186f4",
        "value": "0x0",
        "input": "0x24c1af448b02aafa31da84e3fbd05ade46ba2ebf995c69ca7b429b77b08bf5dc37dc49dd00000000000000000000000000000000000000000000000000000000000000e0000000000000000000000000b9e00f1affa881ce0bd39714f920e19a2fbae9bf000000000000000000000000e5722c5163e673a9026742f35d6145116a38bc8e00000000000000000000000000000000000000000000000000000000000000000000000000000000000000000000000000000000000000000000000000000000000000000000000000000000000000000000000000000000000000006bd6ea480000000000000000000000000000000000000000000000000000000000000010697374616e62756c686f73706974616c00000000000000000000000000000000",
        "nonce": "0x39",
        "chainId": "0xaa36a7"
      },
      "additionalContracts": [],
      "isFixedGasLimit": false
    },
    {
      "hash": "0x32df2bfb26f7641fea64ac05c0f1f5d5d2e2bdb44820d7d28db25d8ee892466e",
      "transactionType": "CALL",
      "contractName": "NameWrapper",
      "contractAddress": "0x0635513f179d50a207757e05759cbd106d7dfce8",
      "function": "setSubnodeRecord(bytes32,string,address,address,uint64,uint32,uint64)",
      "arguments": [
        "0x8b02aafa31da84e3fbd05ade46ba2ebf995c69ca7b429b77b08bf5dc37dc49dd",
        "acmeinsurance",
        "0xB698BBc0cFabF285C3Bc59F1FCDeC0bC6Be056e7",
        "0xE5722c5163E673a9026742f35D6145116A38bc8E",
        "0",
        "0",
        "1809246792"
      ],
      "transaction": {
        "from": "0x7a30d670ebeb9620e35bc6034aee69c4fa5bc50b",
        "to": "0x0635513f179d50a207757e05759cbd106d7dfce8",
        "gas": "0x186c3",
        "value": "0x0",
        "input": "0x24c1af448b02aafa31da84e3fbd05ade46ba2ebf995c69ca7b429b77b08bf5dc37dc49dd00000000000000000000000000000000000000000000000000000000000000e0000000000000000000000000b698bbc0cfabf285c3bc59f1fcdec0bc6be056e7000000000000000000000000e5722c5163e673a9026742f35d6145116a38bc8e00000000000000000000000000000000000000000000000000000000000000000000000000000000000000000000000000000000000000000000000000000000000000000000000000000000000000000000000000000000000000006bd6ea48000000000000000000000000000000000000000000000000000000000000000d61636d65696e737572616e636500000000000000000000000000000000000000",
        "nonce": "0x3a",
        "chainId": "0xaa36a7"
      },
      "additionalContracts": [],
      "isFixedGasLimit": false
    }
  ],
  "receipts": [
    {
      "status": "0x1",
      "cumulativeGasUsed": "0x22a7009",
      "logs": [],
      "logsBloom": "0x00000000000000000000000000000000000000000000000000000000000000000000000000000000000000000000000000000000000000000000000000000000000000000000000000000000000000000000000000000000000000000000000000000000000000000000000000000000000000000000000000000000000000000000000000000000000000000000000000000000000000000000000000000000000000000000000000000000000000000000000000000000000000000000000000000000000000000000000000000000000000000000000000000000000000000000000000000000000000000000000000000000000000000000000000000000",
      "type": "0x2",
      "transactionHash": "0xc8ef8498d9672fc6c8ee6b6850249d20eb30ec4e7d4cbfcc7fc6062e888be525",
      "transactionIndex": "0x100",
      "blockHash": "0xcabb6da072de206cd415e6d35727866965202454e00511e3fbf4fb7ea382e068",
      "blockNumber": "0xa46675",
      "gasUsed": "0x1a4fd0",
      "effectiveGasPrice": "0xf4255",
      "from": "0x7a30d670ebeb9620e35bc6034aee69c4fa5bc50b",
      "to": null,
      "contractAddress": "0xe5722c5163e673a9026742f35d6145116a38bc8e"
    },
    {
      "status": "0x1",
      "cumulativeGasUsed": "0x6792ee",
      "logs": [
        {
          "address": "0x00000000000c2e074ec69a0dfb2997ba6c7d2e1e",
          "topics": [
            "0x335721b01866dc23fbee8b6b2c7b1e14d6f05c28cd35a2c934239f94095602a0",
            "0x8b02aafa31da84e3fbd05ade46ba2ebf995c69ca7b429b77b08bf5dc37dc49dd"
          ],
          "data": "0x000000000000000000000000e5722c5163e673a9026742f35d6145116a38bc8e",
          "blockHash": "0x5f0dd562f0a25e74482bb77f2a918cfd1da81d76138d5b2e4fa69b32494becf5",
          "blockNumber": "0xa46676",
          "blockTimestamp": "0x69f5b6ec",
          "transactionHash": "0x61acfa6f78330379bd892bdadd39ad9051d2fcd05ed89e08eca09f050db7bcc3",
          "transactionIndex": "0x2a",
          "logIndex": "0x106",
          "removed": false
        }
      ],
      "logsBloom": "0x00000000000000000000000000000000000000000000000000000000000000000000000000000000000000000000000000000000000000000000000000020000000000000000000040000000000000000000000000000000000000000000000000000000000000000000000000000000000000000000000000004000400000000000010000000000000000000000000000000000000000000000000000000000000000000000040000000000000000000004000000000000000000000000000000000000000000000000000000000000000000000000000000000000000000000000000000000000000000000100000000000000004000000000000000000000",
      "type": "0x2",
      "transactionHash": "0x61acfa6f78330379bd892bdadd39ad9051d2fcd05ed89e08eca09f050db7bcc3",
      "transactionIndex": "0x2a",
      "blockHash": "0x5f0dd562f0a25e74482bb77f2a918cfd1da81d76138d5b2e4fa69b32494becf5",
      "blockNumber": "0xa46676",
      "gasUsed": "0x92e9",
      "effectiveGasPrice": "0xf4256",
      "from": "0x7a30d670ebeb9620e35bc6034aee69c4fa5bc50b",
      "to": "0x0635513f179d50a207757e05759cbd106d7dfce8",
      "contractAddress": null
    },
    {
      "status": "0x1",
      "cumulativeGasUsed": "0x703b71",
      "logs": [
        {
          "address": "0x00000000000c2e074ec69a0dfb2997ba6c7d2e1e",
          "topics": [
            "0xce0457fe73731f824cc272376169235128c118b49d344817417c6d108d155e82",
            "0x8b02aafa31da84e3fbd05ade46ba2ebf995c69ca7b429b77b08bf5dc37dc49dd",
            "0x7047c755a34ba0350fc33b26231d8af1f43be7991ab3e994b47e6d7a2efe7f1a"
          ],
          "data": "0x0000000000000000000000000635513f179d50a207757e05759cbd106d7dfce8",
          "blockHash": "0x5eccbd904a5783195464116f6fea57ac73a90bcce1ffb9c261eb3260319c3359",
          "blockNumber": "0xa46677",
          "blockTimestamp": "0x69f5b6f8",
          "transactionHash": "0xa529def7381d7ce9a91bd67fcf295a0abd631b0974cb0c9dcca44b49cc5d8894",
          "transactionIndex": "0x31",
          "logIndex": "0xc6",
          "removed": false
        },
        {
          "address": "0x00000000000c2e074ec69a0dfb2997ba6c7d2e1e",
          "topics": [
            "0x335721b01866dc23fbee8b6b2c7b1e14d6f05c28cd35a2c934239f94095602a0",
            "0xe567c8a690864cabe3b1c8c2d97ab50fc0f135650fdfb978beeffa6dd226a7fd"
          ],
          "data": "0x000000000000000000000000e5722c5163e673a9026742f35d6145116a38bc8e",
          "blockHash": "0x5eccbd904a5783195464116f6fea57ac73a90bcce1ffb9c261eb3260319c3359",
          "blockNumber": "0xa46677",
          "blockTimestamp": "0x69f5b6f8",
          "transactionHash": "0xa529def7381d7ce9a91bd67fcf295a0abd631b0974cb0c9dcca44b49cc5d8894",
          "transactionIndex": "0x31",
          "logIndex": "0xc7",
          "removed": false
        },
        {
          "address": "0x0635513f179d50a207757e05759cbd106d7dfce8",
          "topics": [
            "0x39873f00c80f4f94b7bd1594aebcf650f003545b74824d57ddf4939e3ff3a34b",
            "0xe567c8a690864cabe3b1c8c2d97ab50fc0f135650fdfb978beeffa6dd226a7fd"
          ],
          "data": "0x0000000000000000000000000000000000000000000000000000000000000000",
          "blockHash": "0x5eccbd904a5783195464116f6fea57ac73a90bcce1ffb9c261eb3260319c3359",
          "blockNumber": "0xa46677",
          "blockTimestamp": "0x69f5b6f8",
          "transactionHash": "0xa529def7381d7ce9a91bd67fcf295a0abd631b0974cb0c9dcca44b49cc5d8894",
          "transactionIndex": "0x31",
          "logIndex": "0xc8",
          "removed": false
        },
        {
          "address": "0x0635513f179d50a207757e05759cbd106d7dfce8",
          "topics": [
            "0xf675815a0817338f93a7da433f6bd5f5542f1029b11b455191ac96c7f6a9b132",
            "0xe567c8a690864cabe3b1c8c2d97ab50fc0f135650fdfb978beeffa6dd226a7fd"
          ],
          "data": "0x000000000000000000000000000000000000000000000000000000006bd6ea48",
          "blockHash": "0x5eccbd904a5783195464116f6fea57ac73a90bcce1ffb9c261eb3260319c3359",
          "blockNumber": "0xa46677",
          "blockTimestamp": "0x69f5b6f8",
          "transactionHash": "0xa529def7381d7ce9a91bd67fcf295a0abd631b0974cb0c9dcca44b49cc5d8894",
          "transactionIndex": "0x31",
          "logIndex": "0xc9",
          "removed": false
        }
      ],
      "logsBloom": "0x00000000000000400020004000000000001000000000000000000000000004400000000000000000001000000000000000000000000010000000000000020000000000000000000040000000000000000000000000000000000000000000000000000000000000000000000004000000000000000000000000004000400800000000010000001000000080000000000000000082000000000000000000000000000000000000040000000000000000000004000000000000000000040000000000008000000000000000000000004000000000010000000000000000000000000000000000000000000000000100000000000000004000000000000000000000",
      "type": "0x2",
      "transactionHash": "0xa529def7381d7ce9a91bd67fcf295a0abd631b0974cb0c9dcca44b49cc5d8894",
      "transactionIndex": "0x31",
      "blockHash": "0x5eccbd904a5783195464116f6fea57ac73a90bcce1ffb9c261eb3260319c3359",
      "blockNumber": "0xa46677",
      "gasUsed": "0x11b0c",
      "effectiveGasPrice": "0xf4256",
      "from": "0x7a30d670ebeb9620e35bc6034aee69c4fa5bc50b",
      "to": "0x0635513f179d50a207757e05759cbd106d7dfce8",
      "contractAddress": null
    },
    {
      "status": "0x1",
      "cumulativeGasUsed": "0xbe5f8d",
      "logs": [
        {
          "address": "0x00000000000c2e074ec69a0dfb2997ba6c7d2e1e",
          "topics": [
            "0xce0457fe73731f824cc272376169235128c118b49d344817417c6d108d155e82",
            "0x8b02aafa31da84e3fbd05ade46ba2ebf995c69ca7b429b77b08bf5dc37dc49dd",
            "0x577ac456c954045db6f0aa601d9b9422b67920a0415f40f1c6c3ed15c71df1c1"
          ],
          "data": "0x0000000000000000000000000635513f179d50a207757e05759cbd106d7dfce8",
          "blockHash": "0x8e4c6791ee65c1deb3dde0445ae1de043cd6c980092006af8bdee31a31e117be",
          "blockNumber": "0xa46678",
          "blockTimestamp": "0x69f5b704",
          "transactionHash": "0x32df2bfb26f7641fea64ac05c0f1f5d5d2e2bdb44820d7d28db25d8ee892466e",
          "transactionIndex": "0x58",
          "logIndex": "0x167",
          "removed": false
        },
        {
          "address": "0x00000000000c2e074ec69a0dfb2997ba6c7d2e1e",
          "topics": [
            "0x335721b01866dc23fbee8b6b2c7b1e14d6f05c28cd35a2c934239f94095602a0",
            "0x56bad11ea092e3cd1e4288c7e123d913a98fe3760b96df5e4d4fb32684c44bcf"
          ],
          "data": "0x000000000000000000000000e5722c5163e673a9026742f35d6145116a38bc8e",
          "blockHash": "0x8e4c6791ee65c1deb3dde0445ae1de043cd6c980092006af8bdee31a31e117be",
          "blockNumber": "0xa46678",
          "blockTimestamp": "0x69f5b704",
          "transactionHash": "0x32df2bfb26f7641fea64ac05c0f1f5d5d2e2bdb44820d7d28db25d8ee892466e",
          "transactionIndex": "0x58",
          "logIndex": "0x168",
          "removed": false
        },
        {
          "address": "0x0635513f179d50a207757e05759cbd106d7dfce8",
          "topics": [
            "0x39873f00c80f4f94b7bd1594aebcf650f003545b74824d57ddf4939e3ff3a34b",
            "0x56bad11ea092e3cd1e4288c7e123d913a98fe3760b96df5e4d4fb32684c44bcf"
          ],
          "data": "0x0000000000000000000000000000000000000000000000000000000000000000",
          "blockHash": "0x8e4c6791ee65c1deb3dde0445ae1de043cd6c980092006af8bdee31a31e117be",
          "blockNumber": "0xa46678",
          "blockTimestamp": "0x69f5b704",
          "transactionHash": "0x32df2bfb26f7641fea64ac05c0f1f5d5d2e2bdb44820d7d28db25d8ee892466e",
          "transactionIndex": "0x58",
          "logIndex": "0x169",
          "removed": false
        },
        {
          "address": "0x0635513f179d50a207757e05759cbd106d7dfce8",
          "topics": [
            "0xf675815a0817338f93a7da433f6bd5f5542f1029b11b455191ac96c7f6a9b132",
            "0x56bad11ea092e3cd1e4288c7e123d913a98fe3760b96df5e4d4fb32684c44bcf"
          ],
          "data": "0x000000000000000000000000000000000000000000000000000000006bd6ea48",
          "blockHash": "0x8e4c6791ee65c1deb3dde0445ae1de043cd6c980092006af8bdee31a31e117be",
          "blockNumber": "0xa46678",
          "blockTimestamp": "0x69f5b704",
          "transactionHash": "0x32df2bfb26f7641fea64ac05c0f1f5d5d2e2bdb44820d7d28db25d8ee892466e",
          "transactionIndex": "0x58",
          "logIndex": "0x16a",
          "removed": false
        }
      ],
      "logsBloom": "0x00000000000000400000004000000000000000000000000000000000000004400000000000000000000000000000000000000000000010000000000000020000000000000000000040000000000000000001000001000000000000000000010000000000001000000000000004000000000000000000000000004000400800000000010000000000000080000000000000000080000000008000000000000000000000000000040000000000000000000004000000000000200000040000000000000000000000000000000000004000000000010000000000000000000000000000000000000000000000000100000000000000004000000000000000000000",
      "type": "0x2",
      "transactionHash": "0x32df2bfb26f7641fea64ac05c0f1f5d5d2e2bdb44820d7d28db25d8ee892466e",
      "transactionIndex": "0x58",
      "blockHash": "0x8e4c6791ee65c1deb3dde0445ae1de043cd6c980092006af8bdee31a31e117be",
      "blockNumber": "0xa46678",
      "gasUsed": "0x11ae8",
      "effectiveGasPrice": "0xf4255",
      "from": "0x7a30d670ebeb9620e35bc6034aee69c4fa5bc50b",
      "to": "0x0635513f179d50a207757e05759cbd106d7dfce8",
      "contractAddress": null
    }
  ],
  "libraries": [],
  "pending": [],
  "returns": {},
  "timestamp": 1777710853610,
  "chain": 11155111,
  "commit": "8cb8c75"
}